:020000021000EC
:10000000E03F082095010100FB000100E100010034
:10001000090101001901010029010100000000008F
:1000200000000000000000000000000031C60100D8
:10003000390101000000000091C6010059010100D2
:1000400071CC010071CC010071CC010071CC0100B8
:1000500071CC010071CC010071CC010071CC0100A8
:1000600071CC010071CC010071CC010071CC010098
:1000700071CC010071CC010071CC010071CC010088
:1000800071CC010071CC010071CC010071CC010078
:1000900071CC010071CC010071CC010071CC010068
:1000A00071CC010071CC010071CC010071CC010058
:1000B00071CC010071CC010071CC010071CC010048
:1000C00071CC010071CC010071CC01002C760400D0
:1000D00000C007209803000098C30720A01C000060
:1000E00004207146084203D0EFF309800CF0DEBD16
:1000F000EFF308800CF0DABD704708B5014809F04D
:1001000045F9FEE75237040008B5024809F03EF908
:10011000FEE700BF5D37040008B5024809F036F974
:10012000FEE700BF6837040008B5024809F02EF961
:10013000FEE700BF7337040008B5024809F026F94E
:10014000FEE700BF8037040008B5024809F01EF939
:10015000FEE700BF8E37040008B50CF01FFA0CF064
:10016000B9FABDE808400CF02DBA0B4610B5401A9C
:100170005C1AA24203D9C45843F8044BF8E710BDF7
:10018000034610B500221C1AA14202D943F8042BE1
:10019000F9E710BD16480CF03FFB15480CF03FFB8B
:1001A000144C154DAC4201D3144D07E094E8030004
:1001B0000C3454F8042CFFF7D8FFF3E7AC4206D216
:1001C00054F8080B54F8041CFFF7DAFFF6E727F0A1
:1001D0001BFB0CF03BFB01F0DDFD04F06BF94FF471
:1001E00016400CF081FE064809F0D0F8FEE700BF8B
:1001F000E03F0820CC000100D8000100E000010031
:10020000A23704000CF028BA0CF036BA144B10B523
:100210001A68014612B94FF080521A60114C1868E2
:100220002468421894421A6007D20F4CA24204D8A4
:100230000E4A0B488C18046010460D4A1B68126861
:10024000934222BF064B00201A6039B1094A136855
:1002500001331360084B1860084B196010BD00BFD4
:100260009CC30720A4C30720FFBF072038E0072056
:10027000A8C30720ACC3072098C30720A0C307204A
:1002800027F002BD27F000BD27F006BD27F004BD12
:1002900030B504468BB0684627F0ECFF224B079A36
:1002A0002360089B214DA36062602149214B52B914
:1002B0000A68186882428ABF02F1604202F1704205
:1002C000A2F5E822626062681B68B2F5803F82BFD7
:1002D00002F17042A2F5E82262600022E2600A6840
:1002E000934206D3991AC5F1005303F504230B4436
:1002F0000BE0114B1B68934208D9991AC5F10053C2
:1003000003F5F8230B44002B00DDE36020460B4B84
:10031000E2611B68A3610A4B1B686361094B1B68A0
:1003200023610BB030BD00BF3820000038E007204B
:100330009CC30720A4C30720A8C3072098C3072095
:10034000A0C30720ACC3072000207047034A044B1A
:100350001A60044A044B1A60704700BF0080001006
:10036000A4C3072000400820A8C30720014B186041
:10037000704700BFB8C30720014B1860704700BF2B
:10038000B0C3072008B5024828F05AFFFEE700BFB7
:10039000F808040008B5024828F052FFFEE700BF45
:1003A000120904000020704701207047F8B5084B7F
:1003B00016461A680F461C4642B10D46EB1B9E427C
:1003C00004DD236815F8010B9847F7E73046F8BDC0
:1003D000B8C30720F8B5094B0F46186816461C46E7
:1003E00058B10D46EB1B9E4205DD2368002098475F
:1003F00005F8010BF6E726EAE670F8BDB0C3072062
:10040000704700207047FFFF074B1B689A688242C5
:1004100007D05A68824204D0DB681B1A5842584100
:1004200070470120704700BFDCC1072000207047E3
:100430000020704730B504468DB0A8B368460AF076
:1004400073F99DF80030002503F03F0303939DF8F6
:10045000013003A803F03F0304939DF802300B958D
:1004600003F01F0305939DF8043003F01F03069368
:100470009DF8053003F00F03013B0793BDF80630EC
:10048000C3F30B03A3F26C7308939DF8033003F0DE
:1004900007030993BDF80830C3F30B03013B0A932C
:1004A00027F076FD84E8210000200DB030BDFFFF6D
:1004B00070B50F4D0F4E2C6814F0010415D128466D
:1004C0000DF0B2F888B14FF40E70FFF7D9FE30236B
:1004D00080F835323A2380F8344280F8363280F89A
:1004E0003742306028460DF0ABF8306870BD00BF71
:1004F000D4C30720D8C3072070B50F4D0F4E2B680B
:1005000013F0010416D128460DF08EF890B14FF487
:100510000E70FFF7B5FE012380F83432312380F8E6
:1005200035323A2380F8363280F837423060284638
:100530000DF086F8306870BDCCC30720D0C307200B
:100540002DE9F04FADF51B7D0F4609F043FB041E6E
:1005500004DD0BF0EBFF20460BF02EFD0DF114092E
:100560004C462A4D4FF0640B0FCD0FC42B6804AAE4
:100570002360102100240AA804940BF0DBFE244A17
:100580008246244938460AF05FFB26460AAD4FF002
:100590000008D0451CD06B69A34215D1AA69049B01
:1005A00016441BB1B3FBFBF3B2FBF3F3297B0392BD
:1005B00002932B8C00949B00019359F821306A68B8
:1005C000154938460AF040FB08F101082435E0E7F8
:1005D00001340A2CDAD1049B64229E1BB3FBF2F394
:1005E0000E49B6FBF3F30E4A009638460AF02CFB90
:1005F0000BF0B6FB102804D910220A4938460AF03D
:1006000023FB01200DF51B7DBDE8F08F2C090400B4
:100610004B09040050090400770904009F090400F5
:1006200094090400BE09040010B50C46ADF5007D28
:1006300068460CF0A3FA20464FF0FF3269460AF0F4
:10064000CDFA01200DF5007D10BDFFFF30B50C4641
:1006500091B02C49054609F0C9F9002847D00CABE8
:1006600004930BAB03930AAB029309AB019308AB62
:10067000009306AA07AB2449284609F01FF907286A
:1006800001D000203BE09DF83930069A0DA862F3B6
:1006900003038DF83930079A9DF8383062F304036C
:1006A0008DF83830089ABDF83A3062F30B03ADF894
:1006B0003A30099A9DF8363062F304038DF83630EB
:1006C0000A9A9DF8353062F305038DF835300B9AA0
:1006D0009DF8343062F305038DF834300C9A9DF8A0
:1006E000373062F302038DF837300AF045F80AF02C
:1006F000DFF80649024620460AF0A6FA012011B0AA
:1007000030BD00BFE8090400EC0904009E2F04007E
:10071000F7B50D464E49044609F058FA064640B171
:1007200008F0CCFC4FF0FF324A4928460AF056FA4E
:100730008BE04949204609F049FA60B308F0E2FC31
:100740004649024628460AF07FFA08F0E7FC444989
:10075000024628460AF078FA08F0DAFC41490246D7
:1007600028460AF071FA304608F0C2FC044601201F
:1007700008F0BEFC0646022008F0BAFC074603203B
:1007800008F0B6FC009701903346224636492846C9
:100790000AF05AFA59E03549204609F027F950B1D4
:1007A00020220121204609F0BFF9204609F010FA65
:1007B00008F0CCFD49E02E49204609F017F906461D
:1007C00020B92C49204609F011F960B32A49204686
:1007D00009F0FAF860B92949204609F0F5F828B976
:1007E0002046274909F0F0F8044602E0032400E01F
:1007F00002243146204608F001FD224A224B002EF9
:1008000018BF1A463CB1012C07D01C491A4B022CC8
:1008100018BF0B4602E01D4B00E0194B1C4928464F
:100820000AF012FA11E0204609F0D2F9194A1A49E1
:100830000090F323012008F0EFFC204609F0C8F9EE
:100840001649024628460AF0FFF9012003B0F0BD20
:10085000270A04002D0A0400460A04004D0A040079
:10086000620A0400770A0400960A0400C60A04001B
:10087000CA0A0400D20A0400220A04001C0A040066
:10088000161C04000D0A0400050A0400160A0400E0
:10089000DB0A040040090400F40A0400270B0400EA
:1008A00030B589B004AB002400930D4603AB02229F
:1008B00018490394049409F00FF8022827D107ABD4
:1008C000009305AA06AB049903980594069407942F
:1008D00005F000F9024638B1049B0F490093284601
:1008E000039B0AF0B1F910E0059A069B002A0799CC
:1008F00008BF0122002B08BF0123B1FBF3F3B1FBBA
:10090000F2F2284605490AF09FF9012000E020464E
:1009100009B030BDB61B0400350B0400540B0400B5
:100920002DE9F0470E46ADF5856D3949054609F0CC
:10093000E7F838490746284609F00BF935492846B3
:1009400009F027F9284609F043F90122014681A858
:1009500007F00AF9044640B1284609F039F92E4952
:10096000024630460AF070F94CE00DF1040A0146E7
:100970004FF40072504627F026FA00940CF0E8F885
:10098000804689466B464FF40072514681A807F0B5
:1009900085F908B9009B23BB81A807F04EFBCFB1B6
:1009A0000CF0D6F84FF47A72002326F0B7F9002342
:1009B00005464FF47A724046494626F0AFF9281AA8
:1009C00014BF03460123B4FBF3F322461349304618
:1009D0000AF03AF94FF0FF32114930460AF0FEF8BA
:1009E00010E01C44002FCDD13D46009B9D42C9D252
:1009F00033681AF805105B684FF0FF3230469847AD
:100A00000135F2E701200DF5856DBDE8F08700BFE7
:100A1000820B0400B61B04008B0B04009F0B040028
:100A20002D1104002DE9F0470023BEB00C465349B8
:100A300005460C9309F0CAF820B9284609F0C8F811
:100A4000064600E04E4E314615A807F0AFFB0546BE
:100A500030B1034632464B4920460AF0F5F889E0AA
:100A60003246494920460AF0EFF82F460DF1780842
:100A700080230DA915A8CDF84C80149307F0DAFB5C
:100A8000002861D19DF83D30002B5DD09DF83C10D1
:100A90000DF13D00CA065BBF0D9B0C9A44229B18CA
:100AA0005BBF0C932D220135013711F0010F14BFEC
:100AB00052232D23BDF83AA011F0020F09900D9892
:100AC00014BF4FF0480E4FF02D0E11F0040F14BF5D
:100AD0004FF0530C4FF02D0C089011F0200FCAF37B
:100AE0004510BDF8381007904FEAEA20069001F053
:100AF0001F000590C1F343104FEA612114BF4FF06E
:100B000041094FF02D0901F2BC71CDF804C0CDF8B8
:100B100000E004900391CDF808901C4920460AF0AB
:100B200093F84FF0FF321A4920460AF043F8414645
:100B30004FF0FF3220460AF03DF84FF0FF320F49E8
:100B400020460AF04BF891E73A46124900950C9B73
:100B500020460AF079F80BAA0CA9304607F099FB59
:100B600040B90B9B0C499A780C9B20465A4352087B
:100B70000AF06AF801203EB0BDE8F0872D110400AC
:100B8000BA0B0400BD0B0400E10B0400FC0B0400D5
:100B9000290C04002D0C0400570C040070B50C4601
:100BA000064609F015F80546304609F011F807F039
:100BB00032FC064A064B0749002808BF13462A465E
:100BC00020460AF041F8012070BD00BF0D0E040060
:100BD000170E04006B0C040070B50C46064608F0B6
:100BE000F7FF0546304608F0F3FF07F0B7FB064A6B
:100BF000064B0749002808BF13462A4620460AF03C
:100C000023F8012070BD00BF0D0E0400170E040074
:100C1000870C04007FB503AB002400930E4602ABA3
:100C200002220F490294039408F056FE022814D1C0
:100C3000029C039D2046294607F096FC094B0A4971
:100C4000224600280CBF084618462B46009007494C
:100C5000304609F0F9FF012000E0204604B070BDE5
:100C6000B61B0400170E04000D0E0400990C0400BE
:100C700030B5ADF50D7D0C46054608F0A9FF0A22FA
:100C8000014603A806F070FF40B1284608F0A0FF17
:100C90001F490246204609F0D7FF34E08DF80700CF
:100CA00002901C4942F210737E22204609F0CCFFCC
:100CB0001949204609F0C8FF236842F210721B68E8
:100CC0000DF107012046984718B19DF807307E2B9B
:100CD00003D103A807F0B1F915E002AB01220DF131
:100CE000070103A807F092F858B9029B012B08D11D
:100CF00023684FF0FF325B689DF807102046984745
:100D0000DAE70649D5E701200DF50D7D30BD00BFBE
:100D1000B10C0400D80C0400100D0400300D0400C8
:100D20002DE9F04FADF5417D002304AC2360039322
:100D30000D46009403AB0222414908F0CDFD022884
:100D400006D04FF0FF323F49284609F047FF72E0D6
:100D5000216817A807F02AFA10B122683A4906E07C
:100D6000039917A807F022FA28B1039A37492846B1
:100D700009F06AFF5FE04FF480720DEB020105A8F5
:100D800008F06CFD4FF4807280A90AA808F066FD97
:100D900020AE80270FA917A81596169707F04AFAD4
:100DA000002842D19DF84530002B3ED09DF84430BC
:100DB00003F0100303F0FF0A002BEBD10DF1450304
:100DC000039A234905A808F04DFF0DF14503226859
:100DD0001F490AA808F046FF05A808F0F9FE0746D3
:100DE0000AA808F0F5FE804605A8DDF83C9008F05A
:100DF000EFFE83460AA808F0EBFE53465246014632
:100E0000CDF800A0584604F065FE124A124BCDF80A
:100E1000009000280CBF1846104610490190434628
:100E20003A46284609F010FFB3E70AA808F02BFD60
:100E300005A808F028FD01200DF5417DBDE8F08FE3
:100E4000B61B0400570D04009C0D0400C10D0400E6
:100E5000E10D0400170E04000D0E0400E70D040060
:100E6000F8B50D462449064608F0B0FE044607468C
:100E700018B1FFF741FB002208E02049304608F096
:100E8000A5FE044660B1FFF713FB3A46114600F297
:100E9000352007F0F9FB4FF0FF32194B194922E0DA
:100EA0001949304608F092FE044658B1FFF724FB7A
:100EB000012200F2352106F019FE4FF0FF32134BEC
:100EC000134910E01349304608F080FE044680B113
:100ED000FFF7EEFA012200F2352106F007FE0E4B75
:100EE0000E494FF0FF32002818BF1946284609F076
:100EF00075FE2046F8BD00BF6E0E0400780E04009B
:100F0000100E0400060E0400850E04002D0E0400D1
:100F10001D0E04008E0E0400520E0400440E040048
:100F200008B508464FF0FF32084909F057FE08F0AF
:100F3000C5F84FF4FA600BF03FF84FF08043AA2257
:100F40001A7200221A70012008BD00BF9A0E040018
:100F500010B501200C4608F075FC40B100231A467C
:100F600019460AF03BFB4FF0FF32054902E0054904
:100F70004FF0FF32204609F031FE012010BD00BFC6
:100F8000AB0E0400C10E040038B5064C236833B91B
:100F90001C20FFF775F9054609F0CEFA2560206898
:100FA00038BD00BFC4C307202DE9F04F5F4C91B09E
:100FB00023680E4633B92C20FFF762F9054609F085
:100FC0004FFD25602768FFF773FA00240CAA0DA9CE
:100FD00000F235200D9407F05CF948B90C9A0D9C8D
:100FE00095699378023D5C435D4364086D0800E0B9
:100FF00025464F4B1A6898467AB90C20FFF740F9FE
:101000008146FFF7C1FF902389F804300023C9F817
:101010000000C9F80830C8F80090D8F8000004F0C3
:1010200047FD814625F034FE0A9025F017FC014665
:10103000484625F05DFB3F4925F064FC25F028FE7D
:1010400081460DA80BF0F8FB05F088FC68B309F0A9
:10105000A9FC05F06DFC4FF0000A0346D346D046CC
:101060009A450B930BD0504605F0C6FC804538BF1F
:10107000D3460B9B38BF80460AF1010AF0E709F01E
:10108000A9FC642303FB08F32B4ACDF80880B3FBCB
:10109000F2F3C3F164030093CDF804B02B4622466B
:1010A0002649304609F0D0FD05E02B46224624496A
:1010B000304609F0C9FD234C23681BB90120FFF716
:1010C000DFF82060206804F0B7FC044609F0F0FB6C
:1010D000FB8C0A9A0993BB8C1B4908939DF834300A
:1010E000019003F03F0307939DF83530009403F01F
:1010F0003F0306939DF83630304603F01F030593F7
:10110000BDF83A30C3F30B0304939DF8383003F075
:101110001F0303939DF8393003F00F0302934B46EE
:1011200009F092FD012011B0BDE8F08FC8C307207F
:10113000BCC3072000002041A0860100FA0E040075
:101140002E0F0400C0C307203C0F04002DE9F04F10
:101150000D46C7B05549814608F05FFC54498246A8
:10116000484608F05AFC53498346484608F055FC67
:1011700000270DF1100805AE044602970397C8F842
:1011800000703760BAF1000F45D0009603AB02AA99
:101190004949484608F092FB012807DC28464FF0F1
:1011A000FF32464909F01AFD38467CE00DF1180877
:1011B0004FF4807422463946404626F004FE3368D8
:1011C00013B90123336003E0B3F5807F88BF346037
:1011D000FFF7DAFE33689DF80C209DF808100093A5
:1011E000434609F0F7FD364A364B3749002818BF09
:1011F0001346029A284609F027FD002433689C42D2
:101200004ED2039A18F8043022443049284609F097
:101210001BFD0134F2E7BBF1000F2CD0CDF80080AC
:1012200003AB02AA2A49484608F048FB032807D026
:1012300028464FF0FF32274909F0D0FC504632E0F3
:10124000FFF7A2FE98F800309DF80C209DF80810DA
:1012500009F0D5FD48B1039B1F490093D8F8002041
:10126000029B284609F0F0FC1AE0029A1B49284626
:1012700009F0EAFC14E0A8B102230293029BFE2BC2
:1012800010DCFFF781FE9DF8081009F0C3FD20B1C6
:10129000029A1349284609F0D7FC029B0233ECE777
:1012A000012000E0204647B0BDE8F08FD51C0400C7
:1012B000A50F0400AB0F0400B40F0400C30F04001B
:1012C0000D0E0400170E0400E40F040008100400C3
:1012D00018100400281004004F10040069100400C6
:1012E0008610040070B5ADF50A7D05460C4608F081
:1012F000DCFA0B2802DD0C2222493CE0284608F0EB
:1013000067FC0122014601A806F02EFC064668BBD8
:1013100001A806F092FE284608F05AFC1A49024637
:10132000049B204609F090FC236820469B68984760
:101330000A200AF041FE4FF0100383F31188BFF337
:101340006F8FBFF34F8F284608F042FC02460F4BC9
:101350000068516803C390680D4A186043F80C2C6C
:101360004FF08043AA221A721E7007E0284608F048
:101370002FFC02460749204609F066FC01200DF5C6
:101380000A7D70BDC0100400E71004004840024010
:101390000DD0ADDE2E1104002DE9F041404CA4B07B
:1013A00023680646DB070D460CD420460CF03CF9BA
:1013B00040B14FF4806026F067FC3A4B186020463D
:1013C0000CF03EF93849304608F027FB0746044642
:1013D00000B38022002104A826F0F5FC002302932C
:1013E000039303AB009304AA02AB3049304608F0E4
:1013F00065FA2C49029B039A096804A813B904F002
:1014000005FC01E004F024FC294B2A49002818BF00
:10141000194638E02849304608F0FFFA0746002808
:101420003AD004AB304603AA2449039404948DF8BF
:10143000084008F043FA039E049B3344B3F5806FE1
:1014400002DCDFF860800CE04FF480621C4920E091
:10145000D8F800309DF808209A559DF808300136DC
:101460001C44039B049AF31A934210DAB6F5806F7A
:101470000DDA2B684FF4FA621B6802A928469847D8
:101480000028E5D10F49284609F0DEFB04E022469A
:101490000D49284609F0D8FB384624B0BDE8F08154
:1014A000E0C30720DCC307205911040060110400C9
:1014B0004711040043110400701104007711040067
:1014C00081110400A5110400B511040038B50D46C2
:1014D00008F080FB0446C0B203F018FA054A064B38
:1014E0000649002818BF13462246284609F0ACFBDF
:1014F000012038BD0D0E0400C6110400CD110400FA
:1015000030B50C46054687B00A4909F09DFBA18815
:1015100023880491218962880391E18828460291F9
:10152000E17A0191A17A0091034909F08DFB07B09E
:1015300030BD00BFE41104001A1204002DE9F0418F
:101540008CB003AB002600930D46904602AB0222FE
:1015500038490296039608F0BFF9B04266DD02985A
:1015600025F073FDC7B2039818B128F0FFFEC4B28E
:1015700000E00446002104A804F068F830B14FF000
:10158000FF322D49284609F029FBF3E7022318F121
:1015900000010093039A234618BF0121384603F047
:1015A000F9FA064638B94FF0FF322449284609F0C7
:1015B00015FB01263AE0B8F1000F37D04FF47A71ED
:1015C00004A804F04BF860B39DF81030BB4228D15A
:1015D0009DF817300C2B04D13A4606A92846FFF790
:1015E0008FFFBCB91649284609F02EFB9DF817302D
:1015F0009C420ADA04AB19192B684FF0FF325B6882
:10160000097A284698470134F0E70E49284609F040
:101610001BFB0BE04FF0FF320B49284609F0DEFAC6
:1016200004E0029A0949284609F00EFB30460CB046
:10163000BDE8F081B61B0400381204005A12040001
:1016400082120400AF18040096120400B3120400C2
:101650001FB501A80C4603F07BFC03F063F901A958
:1016600002462046FFF74CFF012004B010BDFFFFEB
:1016700030B58BB00AAA4FF47A730C4642F8243D79
:10168000174908F01BF90025019902A803F0DEFFB5
:10169000D8B19DF808201349204609F0D5FA002555
:1016A0009DF80F309D420ADA02AB591923684FF0BA
:1016B000FF325B68097A204698470135F0E70A490E
:1016C000204609F0C1FA0125DEE72DB94FF0FF32BF
:1016D0000649204609F082FA01200BB030BD00BF58
:1016E0007E110400D91204002C110400F012040031
:1016F00037B50C4603F090FA05461649204609F026
:10170000A3FA15492A46204609F09EFA11492046B7
:1017100009F09AFAD5B11149204609F095FA0D4918
:10172000204609F091FA0025E8B203F05FFA01358E
:1017300040B181784378027800912046084909F049
:1017400083FAF1E70349204609F07EFA012003B04D
:1017500030BD00BF011304001C1304003613040045
:10176000511304002DE9F3473C4C0746266889468F
:10177000002E62D12420FEF783FD0423054680E875
:1017800048008660C6602021304627F0C5FDAE685F
:10179000E8604FEA8608072E0ED81020FEF770FD8D
:1017A00082461022002126F00EFBEB68013643F83A
:1017B00008A008F10408EEE7002608236B604FF04C
:1017C0000108274B274A28492846009685F820809B
:1017D000256007F0E5F9254B254A26492068009643
:1017E00007F0DEF9244B254A25492068009607F0CA
:1017F000D7F9244B244A25492068009607F0D0F9F0
:10180000234B244A24492068009607F0C9F9234B4A
:10181000234A24492068CDF8008007F0C1F9224B03
:10182000224A20492068009607F0BAF90096204B1A
:10183000204A2149206807F0B3F92049384608F0CA
:10184000C5F918B11E49384608F07AFA4A463946B1
:10185000206802B0BDE8F04707F082BAE8C307206D
:101860006C130400A6130400111B0100AD13040047
:1018700001140400E51801000A1404002D140400EA
:1018800071160100301404008F190400CD140100FA
:101890005A14040076140400F11601007D140400AB
:1018A000E41404003D150100BE140400E314040018
:1018B000E814040003150400511601002D11040062
:1018C0000915040038B5064C236833B95820FEF7D3
:1018D000D7FC054608F008FF2560206838BD00BF2A
:1018E000E4C307202DE9F04F0446ADF2DC5D802211
:1018F00088460DA8002126F066FA802200212DA836
:1019000026F061FA06AE002333600DAA00962DABD7
:101910007549204607F0D2FF032801D00020DFE000
:1019200001220DA9EDA806F01FF905460028F5D102
:10193000FFF7C8FF3368802280F853304DA9044672
:1019400008A88DF81750079507F088FF2DAB009376
:1019500033680DAA6549404609F076F9A94607AEF5
:1019600033464FF400726DA9EDA806F097F90028F0
:1019700040F0AF803368002B00F0AB806F1C326802
:101980005B49204609F060F9236820469B68984728
:101990007D1E0DF5DA7B4FF0000A6DAB3268C3EBAC
:1019A0000B039A4223680CD9CDF80CB05B684FF05A
:1019B000FF321BF8011B20469847039B1B789A4473
:1019C000EBE79B682046984708A808F001F9834692
:1019D00008A807F06DFF4FF47A7302465946204677
:1019E00009F00AF9202201210DEB020008F09CF811
:1019F00008A808F0EFF8824520D008A808F0EAF817
:101A0000524603463B49404609F01EF93A492046F2
:101A100009F01AF9236820469B68984723684FF419
:101A20007A721B680DF11701204698470028F5D1FE
:101A3000022F07F101034CD81F46A0E733682DAAF7
:101A40002E49009320464B4609F0FEF823682046B5
:101A50009B68984708A808F0BBF8824608A807F0DA
:101A600027FF514602464FF47A73204609F0C4F826
:101A7000234908A807F0A8FFD0B908A808F0A8F8DB
:101A800020490246404609F0DFF81B49204609F08C
:101A9000DBF8236820469B68984723684FF47A72E6
:101AA0001B680DF11701204698470028F5D1BFE7C4
:101AB000154908A808F044F93368144999444A467E
:101AC000F09B404609F0C0F8002D3FF448AFBD1E22
:101AD00045E7EDA806F0B1FA08A807F0D4FE01200A
:101AE0000DF2DC5DBDE8F08F0E1504001D1504003D
:101AF00034150400461504002C1104006D15040073
:101B000083150400861504002D110400BE15040081
:101B10002DE9F047074686B006AA002442F80C4D8E
:101B20000E463D4907F0CAFE20220121384607F043
:101B3000FBFF039B002B65D0384607F0B6FE00285C
:101B400060D0FFF7BFFE05460DF1180808F80D4DEF
:101B50002B6805221B684146284698470446002802
:101B6000F6D1039B384685F8533008F031F8274604
:101B700001464FF0FF32284609F030F82B6828461E
:101B80009B689847254B0DF11809186849F8044DD2
:101B900004902B684FF47A721B6841462846984798
:101BA000D0B103220DF11501484626F0F1F89DF859
:101BB0000BA0042204A948468DF817A026F0CEF801
:101BC00050B1336801225B6851463046013798476F
:101BD0000028DED10134DCE71822B7FBF2F302FB68
:101BE000137202B101333A460D49304609F02CF820
:101BF00074B16123009322460A4B0B49304609F029
:101C000023F805E04FF0FF320849304608F0E6FFC0
:101C1000012006B0BDE8F0877E110400C211040067
:101C2000CA150400F11504002D160400E616040080
:101C3000014827F005BB00BF1217040038B5044661
:101C40000D460BF0FFF8074BB0FBF3F00223B0FB9F
:101C5000F3F2AA4204D9B3F5807F01D00233F6E74C
:101C6000236138BD40420F007FB500F235260C4697
:101C70000122314605F03AFF054648BB039002AA0F
:101C800003A9304606F005FB00BB0298039A83784F
:101C900002FB03F182691348023A5A435208B2F533
:101CA000004F38BF0120104B4FEA510124BF0346BB
:101CB0004FF48060B1FBF0F1B2FBF0F200910193C0
:101CC00021460A4827F00CFA012008E0084B00E002
:101CD000084B2A462146084827F002FA002004B0A3
:101CE00070BD00BF501704004D1704005A170400C0
:101CF00056170400531704008817040038B5074C22
:101D000023684BB90820FEF7BBFA0546FFF73CF9FC
:101D1000402328602B712560206838BDF4C307205C
:101D200038B5054C256825B90120FEF7A9FA0570DC
:101D30002060206838BD00BFF0C3072038B5084CCC
:101D400023685BB90C20FEF79BFA0546FFF71CF9E8
:101D500090232B7100232860AB602560206838BD7C
:101D6000BCC3072010B5044C23681BB90120FEF743
:101D700087FA2060206810BDC0C3072010B5044C4E
:101D800023681BB90120FEF77BFA2060206810BD94
:101D9000ECC30720AD49AE4A4023F0B58B614FF04C
:101DA000007393614FF480338B61AA4BADF5057DD1
:101DB0001868072520F0F00018601868022440F029
:101DC00050001860186820F440501860086840F00F
:101DD00040000860186820F47C201860186840F4FF
:101DE00028201860186820F470001860186840F403
:101DF00020001860186820F040401860186840F013
:101E000000401860586820F03C005860586840F066
:101E100028005860586820F003005860086840F4B3
:101E200080300860586820F440505860086820F4FA
:101E300080000860D96821F44031D960116841F010
:101E400080711160596821F440215960596841F44A
:101E5000802159609868804901409960116841F477
:101E6000897141F001011160996821F47011996044
:101E7000996821F070419960116821F44641116020
:101E8000D96821F03001D960D96841F03001D960BA
:101E9000D96821F47011D960136843F0007313609E
:101EA000136823F08063136007F0A8FF01210A2064
:101EB0000AF0E8FD01210A200AF0FCFD6748012133
:101EC00005604460FFF7BAFE08F0FCFC0121152014
:101ED0000AF0D8FD012115200AF0ECFD604801212F
:101EE00005604460FFF7AAFEFFF74EF8642108F092
:101EF000EFFA10B95B4827F0A3F90AF0FFFD03F0F1
:101F00007FFB10B9584827F09BF94FF4FA6007F0AF
:101F10002EFFFFF78DFE0AF095FF24F09BFC53493E
:101F200024F0A4FD24F05AF802460B46504827F04E
:101F3000D7F80AF07BFC052804AC14D100236360B9
:101F40004C4B1B682360FFF773FE4B4B4B48D96C1F
:101F50001A6D5B6D009427F0C3F8FFF769FE41F23C
:101F6000883007F004FFFEF7A3FA4549FFF77CFE2F
:101F7000054668BB434827F0B3F804F067FDFEF759
:101F800097FA29462A4600F2352006F07DFB3E4BA3
:101F90003E4A00280CBF1046184627F051F9FEF7BC
:101FA00087FA3749FFF760FE90B9394827F048F9BA
:101FB00004F0CEFC0146374827F092F804F0B8FC54
:101FC000054604F0C5FC00FB05F1334827F088F80E
:101FD000324E334F336813F0010516D130460BF003
:101FE00023FB90B14FF40E70FEF74AF9012380F8FD
:101FF0003432312380F835323A2380F8363280F893
:102000003752386030460BF01BFB26493868264DA6
:10201000FFF72AFE18211148FFF710FEFFF708FE10
:102020002B684BB90820FEF72BF90646FEF7ACFFEC
:102030003823306033712E60286803F0D3FB0546E7
:10204000B0BB1A4827F0FCF833E000BF00C00920FD
:1020500020C0092000C00240F0FCFCFF000003404B
:1020600000800840CC170400FD17040000247449C8
:102070002218040044400240004002403A18040084
:10208000B2180400BA180400C0170400BB170400FB
:10209000F71804001619040025190400CCC3072002
:1020A000D0C307203C0E0400FCC3072040190400E5
:1020B0000125FFF743FE03F0D1FC064618B972482C
:1020C00027F0BEF83546FFF719FE03F00DFC064673
:1020D00018B96E4827F0B4F835466D4E33681BB911
:1020E0000120FEF7CDF83060306803F0CBFBFFF73E
:1020F00039FE03F09FFCFFF713FE03F02EFCFFF701
:102100003DFE03F09CFCFFF70BFE002103F028FCD2
:102110008DB9FFF78DFDFFF7F1FD2D2103F0CCFB0D
:10212000FFF7ECFD2D2103F0D3FBFFF7F9FDFF21B5
:1021300003F016FC0CE0FFF7E1FD0546FFF7FEFD9E
:1021400003F0B6FC24F0CAFDC1B2284603F0E8FB58
:1021500010220021204625F036FE00230F222146C2
:102160004C4803F031FD80B9204624F06EFFC5B223
:10217000284602F0CBFB484A484B2946002818BFA6
:102180001346444A464826F0ABFFFFF7EBFD03F049
:1021900053FC0546002029F097F9284427F05AF807
:1021A0004FF400720021204625F00DFE20460AF073
:1021B000E5FC21463B4826F093FFFFF739FD8022DE
:1021C0000021204625F0FFFD204604F09DFB2278EB
:1021D000FF2A04D02146344826F082FF29E0FFF789
:1021E000CDFD03F02FFC09281DD1304827F028F839
:1021F00021462F4827F066F921462E4826F070FF29
:102200002D4827F01DF8002303A92C48039327F03D
:1022100059F99DF80C30592B03D1204604F052FB9C
:1022200007E0274803E0274827F00AF8264827F068
:1022300007F84FF208031D684FF20C031C684FF2B9
:1022400010031E684FF470431A684FF20403AD0A7E
:102250001968A40A1D4826F043FF2A4621461C4857
:1022600026F03EFF31461B4826F03AFFFFF7E0FC20
:10227000012006F059FF184826F0E2FFFFF7D8FCCE
:102280000DF5057DF0BD00BF5B1904007519040054
:10229000F8C307208E190400C6170400C6110400F5
:1022A000941904009E2F0400C8190400E4190400C6
:1022B000061A04000B1A0400261A0400691A040006
:1022C0006D1A0400851A0400B31A0400E51A04000C
:1022D000111B04003E1B04005B1B0400012070471F
:1022E000012070470120704710B5044C23681BB9CA
:1022F0000120FDF7C5FF2060206810BDF8C307204E
:102300000120704738B504460F4B00250360636D0C
:10231000E06DAB4205D950F82500FDF7B5FF01355A
:10232000F5E708B1FDF7B2FF0025A36B206CAB42C7
:1023300005D950F82500FDF7A7FF0135F5E708B1ED
:10234000FDF7A4FF204638BD941B040010B50446D9
:10235000FFF7D8FF2046FDF797FF204610BD2DE977
:10236000F04104460E46C068890026F0D5FFA568F6
:10237000E060AF004FF00008AE420DD90C20FDF731
:102380007FFFE368C0F80080C0F8048080F8088010
:102390000135D8510437EFE76660BDE8F081FFFFF3
:1023A000F7B5044600250B464FF4805200952549A9
:1023B00007F02EFA244B042623606663A563E563C9
:1023C0002564022104F13400FFF7C9FF2665656525
:1023D000A565E5652846602126F09EFFA56DE065B0
:1023E000AE00172D0CD81020FDF74AFF074610222B
:1023F000002125F0E8FCE36D01359F510436F0E73C
:1024000018236365012384F87030104E0023A4F86C
:102410007430A4F87630A367002200230027C4E9B3
:102420002023C4E922670AF093FB4FF47A72002359
:1024300024F074FC80197941C4E92001204603B0DE
:10244000F0BD00BFAC1B0400941B0400C0D401000D
:102450002DE9F0410F7A14464D680E688FB1082AB5
:1024600023D1284607F021FA00281CDD4FF0FF3267
:102470001349304608F09EFB0121284607F014FB63
:1024800008E00A2A19D00D2A12D02146284607F062
:102490002CFC97B1336821463046BDE8F0415B68BB
:1024A0004FF0FF3218470724F4E70A2A02D1F1E778
:1024B000BDE8F0810D2AEDD0E7E7BDE8F08100BF6F
:1024C000B51B0400F8B50446142015460F46FDF769
:1024D000D7FE8021064607F0B8FBA36BE26B9A4259
:1024E00006D3616B591803D204F13400FFF737FFAC
:1024F000E36B226C591C52F82330E1631F605E606D
:102500001D72F8BD2DE9FF47CF6B06460D4601ACA5
:102510003FB94FF47A7009F04FFD01976760A760EB
:1025200047E00B6C0DF110081B6893E8070084E886
:102530000700002308F80D3D09F006FC814600273E
:10254000EB6B9F4263D22B6C4FEA870A53F827301C
:102550001868037C002B34D0036800221B684146B6
:10256000984770B3EB6B9F422DD22B6C53F80A3017
:1025700093E8070084E807009DF8032021462846D9
:10258000FFF766FF0AF0E4FA4FF47A72002324F0B2
:10259000C5FBD5E9222380185941C5E920010298DD
:1025A00007F083F90746029807F082F9013887425D
:1025B0000CDB94E8070086E80700304604B0BDE86D
:1025C000F0870137BCE705F14403D1E7D5E92223C1
:1025D000134324D00AF0BCFA4FF47A72002324F09B
:1025E0009DFBD5E92023994208BF904217D30AF0FA
:1025F000AFFA4FF47A72002324F090FBD5E922233E
:10260000801859410023C5E920010193D1E709F061
:102610009BFB8145C3D1022009F0CEFCBFE79DF8AA
:1026200003300A2B88D1C4E7F0B5054685B02048B1
:1026300026F056FD294601A8FFF764FF019C1CB94E
:102640001C4826F0FDFD30E0029E304607F02DF9D3
:1026500000282ADD0AF07CFA0746F8B1B5F8743094
:1026600005F150000133A5F874302246314606F0DA
:1026700077FB114B00251868009023681DF80510A2
:102680005B684FF0FF32204601359847042DF4D1A6
:102690000AF05EFAC11B094826F022FD304607F019
:1026A00009F9236820469B689847012005B0F0BDD2
:1026B000B81B04002D110400881B0400BE1B04007D
:1026C00038B5064C236833B92C20FDF7D9FD0546F3
:1026D00008F0C6F92560206838BD00BFC8C30720D0
:1026E00010B50446FFF7ECFF03682146BDE8104033
:1026F0005B684FF0FF32184713B5002302AC04F8B3
:10270000013DFFF7DDFF03684FF0FF321B682146F4
:1027100098479DF8070002B010BDFFFF2DE9F0417A
:1027200000F150048AB000250646009520465B4B18
:102730005B4A5C4906F034FA009520465A4B5B4AE6
:102740005B4906F02DFA009520465A4B5A4A5B49E0
:1027500006F026FA00952046594B5A4A5A4906F087
:102760001FFA00952046594B594A5A4906F018FA63
:1027700000952046584B594A594906F011FA0095E0
:102780002046584B584A594906F00AFA0095204607
:10279000574B584A584906F003FA00952046574BC4
:1027A000574A584906F0FCF900952046564B574ABF
:1027B000574906F0F5F900952046564B564A5749B9
:1027C00006F0EEF900952046554B564A564906F05C
:1027D000E7F900952046554B554A564906F0E0F971
:1027E00000952046544B554A554906F0D9F90095B5
:1027F0002046544B544A554906F0D2F900952046DC
:10280000534B544A544906F0CBF900952046534B9C
:10281000534A544906F0C4F900952046524B534A96
:10282000534906F0BDF900952046524B524A534990
:1028300006F0B6F90095524B524A5349204606F02D
:10284000AFF9FFF73DFF4FF4807320224FF416419C
:10285000054608F0E5F8804601272F744B48FDF740
:102860008BFD4B48FDF782FD3A4629463046FFF77F
:1028700029FE082203A905A806F0F0FF05A845498E
:1028800007F05EFA2A4605A9204606F069FA05A86F
:1028900006F0F9FF40460AB0BDE8F081D41B040001
:1028A000161C0400410501000B1C04001B1C040045
:1028B00029060100231C0400311C0400A90F01009B
:1028C000381C0400791C04004D0601007E1C040025
:1028D000DA1C040021090100DE1C04006C1D040048
:1028E000A1080100201D04006B1D0400210D010042
:1028F0006F1D04009D1D0400250A0100A01D040099
:10290000C51D04009D0B0100CB1D0400F81D040033
:10291000150C0100FB1D0400756F0400710C010013
:10292000201E0400431E0400D90B0100461E0400B3
:10293000191F04004D1101001D1F0400601F040039
:10294000610E0100681F04007B1F0400210F0100BD
:10295000821F04008120040011070100852004006B
:10296000AD200400510F0100B32004001918040029
:1029700065170100DD200400D12104009913010036
:102980009A2104007F0E0400E5120100F9260100DF
:10299000E12601000915040008B5202240234FF468
:1029A000165108F0C5F8BDE80840014802F0B5BE70
:1029B00020C407202DE9F341524D06462B78002B09
:1029C00043D000235049032208F016F94E4824F062
:1029D0003CFBDFF874814D4B01461860D8F800309D
:1029E0004B4F984229D14B4826F07AFB98F800309B
:1029F000494A0024137002AA8DF807408DF806405A
:102A00008DF805408DF804408DF803408DF80240A4
:102A10008DF80140012102F8083D4FF4FC7000F0F0
:102A20002EF933682C70C8F800409B6830469847F0
:102A30003A483C6002F07FFE07E03B680133322BEE
:102A40003B6002DD354802F070FEB06908F098FF87
:102A500005280246324C51D132490023304608F055
:102A6000CBF831492F4826F03BFF10B901F038FC74
:102A700044E02E492B4826F033FF38B92C4826F085
:102A80002FFB01F04FFC01232B7037E0294925482B
:102A900026F026FF10B9012323702FE02649214894
:102AA00026F01EFF08B9207028E024491D4826F0B2
:102AB00017FF10B901F0F2FB20E02149194826F078
:102AC0000FFFD8B91F4A8DF8070013788DF806005C
:102AD00043F00F03137002AA0F238DF805008DF841
:102AE00004008DF803008DF802008DF8010001212B
:102AF00002F8083D4FF4FA7000F0C1F8207802B0F7
:102B0000BDE8F08178C407204CC4072008C4072022
:102B100050C40720F321040000C4072020C407206C
:102B200044C407205CC4072012C0072018C0072037
:102B30000A2204000CC0072006C007201EC0072080
:102B400000C0072054C4072048C4072037B50446F6
:102B5000806908F015FF142843D900231522224963
:102B6000204608F049F8214A1F49136820480133DC
:102B7000136016F0B6FB1F491B4828F0D9FA1E4C0B
:102B80001C492060002028F0D3FA1C4D0021286049
:102B9000206828F099FA1A4CC4E90001286800213D
:102BA00028F092FA174DC5E90001CDE90001164859
:102BB000D4E9002326F094FAD4E90001D5E90023F2
:102BC000124C01F0D5FB256825B90120FDF758FB13
:102BD000057020602068012103B0BDE8304002F09C
:102BE00015BF03B030BD00BF5CC4072048C4072038
:102BF00028C40720F630040074C4072040C407200E
:102C000010C4072018C407200E220400F0C30720B8
:102C100038B5104D104C28460AF018FD28460F4DC7
:102C200022460F49FDF790FB4621284602F044FD5D
:102C300022460C492846FDF787FB0B48224600F147
:102C4000080303600023037243600849BDE838406D
:102C5000FDF77ABB0CC40720B4C3072020C40720AB
:102C600065D701009557010028C407208F8F020007
:102C70000B464FF0FF320146184607F0AFBF7FB555
:102C80000C460646154600211022684625F09BF8A2
:102C90004FF00003224664F30303294602A88DF88F
:102CA0000230019625F069F800226946104607F0C7
:102CB000B5FA04B070BD704710B50446FDF7E4FAEC
:102CC000204610BD014B1860704700BF7CC4072030
:102CD000014B1860704700BF90C40720014B18607B
:102CE000704700BF84C40720014B1860704700BFC5
:102CF0008CC40720064AD36813F0020F044BFAD0A5
:102D00009960DA68D206FCD4014B9868C0B270476B
:102D100000800840024A536843F002035360704742
:102D20000080084037B5054600240B4600944FF458
:102D30002052264906F06CFD254B85F831402B606A
:102D4000244B2046D3F8C4200F2142F40012C3F8CC
:102D5000C420D3F8AC2122F44062C3F8AC21D3F8EC
:102D6000AC2142F48062C3F8AC21022207F06CFB74
:102D700020460222112107F067FB12212046022281
:102D800007F062FB144B02221A6107221A602846E0
:102D9000FFF7C0FF204601221D2107F03FFB204620
:102DA00001221E2107F03AFB01221046132107F0F1
:102DB00035FB012210461C2107F030FB0122104692
:102DC0001C2107F019FB284603B030BD2422040063
:102DD000A827040000C00F400080084001221D21E8
:102DE000002007F009BB00221D21104607F004BB9C
:102DF00001221E21002007F0FFBA00221E211046EA
:102E000007F0FABA01221321104607F0F5BA0022A2
:102E10001321012007F0F0BA10B5013900238B42CD
:102E200006DAC25C445CC454425401330139F6E70B
:102E300010BD0028F8B50C4603D130230B70487044
:102E400021E004DA0A2A02D14042012500E00025EF
:102E5000671E002390FBF2F602FB16000928CCBF88
:102E600057303030C0B207F8010F591C30460EB150
:102E70000B46EFE715B12D226254991C00236354D1
:102E80002046FFF7C9FF2046F8BD38B504460D4679
:102E9000FFF7BDFF2046FFF7A6FF29462046FFF7B4
:102EA00029FF2046BDE83840FFF798BF38B50446F3
:102EB0000D46FFF7A7FF2046FFF795FF294620465E
:102EC000FFF718FF2046BDE83840FFF787BF2DE920
:102ED000F041044688461F4616462A21BDF8185080
:102EE000FFF7D3FF4FEA18212046FFF7DFFF5FFA15
:102EF00088F12046FFF7DAFF390A2046FFF7D6FFB0
:102F0000F9B22046FFF7D2FF20462B21FFF7BDFF85
:102F1000310A2046FFF7CAFFF1B22046FFF7C6FF8D
:102F2000290A2046FFF7C2FFE9B22046FFF7BEFF9D
:102F30002046BDE8F0412C21FFF7A7BF73B589B249
:102F4000EF2904461E461ED892B2B2F5A07F1AD2CF
:102F5000551C4B1CADB29BB20095FFF7B8FF204645
:102F6000FFF750FF2046FFF73EFF310A2046FFF7EC
:102F7000C1FEF1B22046FFF7BDFE204602B0BDE81B
:102F80007040FFF72BBF02B070BD2DE9F04F1E4619
:102F900085B0BDF9383015469A1AC1EB0608002AEB
:102FA000B8BF5242B8F1000FB8BFC8F1000842459F
:102FB00082460C46BDF83CB0019204DD32462C46F8
:102FC0001E460D461346B44205DD2A461D461346ED
:102FD0002246344616465A1B002AC4EB0609B8BFDF
:102FE00052421FFA89F903920FFA89F702229D4291
:102FF000B4BF01234FF0FF3397FBF2F70293B442C3
:103000001ADC019B50464345C8BF22465B46CEBFF3
:1030100029462A462146FFF791FF039BFF1ABBB2C0
:103020001FB2002F05DA029A09EB030715442DB2EF
:103030003FB2013424B2E2E705B0BDE8F08F13B52A
:10304000013BBDF8104013441BB2009301940B46A2
:10305000FFF79BFF02B010BD2DE9F743054616466A
:103060000C46BDF92870BDF82C8001EB03094C45D6
:103070000ADA2146CDF800803B4632462846013424
:10308000FFF7DDFF24B2F2E703B0BDE8F08307B538
:10309000002323228DE80C00912156233722FFF7CD
:1030A000DBFF03B05DF804FB07B5002323228DE8A6
:1030B0000C00912156230F22FFF7CEFF03B05DF8DD
:1030C00004FB07B5002323228DE80C009121562331
:1030D0006922FFF7C1FF03B05DF804FB07B50023C9
:1030E00023228DE80C0091215623A522FFF7B4FF7F
:1030F00003B05DF804FB07B54FF4A0730022009302
:103100000192F0231146FFF7A7FF03B05DF804FB1F
:1031100013B5013BBDF810400B448DE814001BB201
:10312000FFF733FF02B010BD2DE9F04F8FB091468D
:10313000BDF86020EF29074608910392BDF864802E
:103140009DF8684000F3A080B9F5A07F80F29C80D4
:10315000062202FB0412002A40F3968009EBC40207
:10316000002A40F39180AF2B4FF0050288BF013356
:103170000A924FF0000288BFDBB20292464A03EB8C
:103180008303D3181FFA89FA0C930AF108039BB240
:103190000D935646029A0C9BBDF820B09B5CA5B2DD
:1031A0000593BDF80830CDF818A005FB03B25B44C9
:1031B00012B209921BB222B2CDF81CA004920B935A
:1031C000059B13F0010F039B07D0012C0AD001933C
:1031D000049BBDF91C20009310E0434512D0012C44
:1031E00006D1434632B20B993846FFF7A7FE09E0F5
:1031F000049BBDF91820CDF8048000930999384646
:10320000FFF72AFF059B01365B080593079BB6B2C3
:103210002B449BB20793069B2B449BB206930D9BBA
:10322000B342CDD1029B01335BB202930A9B013BB7
:1032300013F0FF030A93ACD1039B434519D0012C33
:103240000AD10BF10501CDF8008008234A4609B2E6
:103250003846FFF7F4FE0CE005EB85015944ED001C
:10326000CDF80480009523464A4609B23846FFF758
:10327000F3FE204622F0A0FE05A3D3E9002322F0AE
:1032800001FF23F099F900E001200FB0BDE8F08FB5
:103290009A99999999991540902204002DE9FF4730
:1032A00006461446BDF834809DF830A04D1E1FB26E
:1032B0004FF0000915F8013F43B121B28DE8000736
:1032C0003A463046FFF730FF0444F3E704B0BDE868
:1032D000F087FFFF73B54FF6FF7504464FF6E076B3
:1032E0000095C82300220521FFF7A9FE0095C823F9
:1032F00000228E212046FFF7A2FE0095C82300225F
:10330000EB212046FFF79BFE0095E72300220521D5
:103310002046FFF7FDFE0095E723322205212046D7
:10332000FFF7F6FE0095E723642205212046FFF70C
:10333000EFFE0095E723962205212046FFF7E8FEE1
:103340000095E7230225C82205212046FFF7E0FE6D
:1033500014230C22464920468DE86000FFF79EFFAB
:1033600046230C22434920468DE86000FFF796FF74
:1033700078230C22404920468DE86000FFF78EFF3D
:10338000AA230C223D4920468DE86000FFF786FF06
:103390003B48002332221946006808F025FA80B124
:1033A000384B0A2238491868FFF743FD2046FFF7DB
:1033B0007BFE8DE860001423942233492046FFF7FA
:1033C0006DFF3248002332221946006808F00CFADB
:1033D00098B12F4B0A222C491868FFF72AFD204686
:1033E000FFF755FE4FF6E07302208DE809009422A6
:1033F000462325492046FFF751FF26480023322265
:103400001946006808F0F0F998B1234B0A221E49CA
:103410001868FFF70EFD2046FFF753FE4FF6E073E6
:1034200002218DE80A009422782317492046FFF7ED
:1034300035FF1A48002332221946006808F0D4F9F3
:1034400098B1174B0A2210491868FFF7F2FC204682
:10345000FFF744FE4FF6E07302228DE80C000A49A4
:10346000AA2394222046FFF719FF02B070BD00BFC7
:10347000592204005F2204006D2204007B22040014
:1034800088C4072090C407209CC4072098C4072044
:103490007CC40720D0C4072084C4072094C407201C
:1034A0008CC4072080B5194F00231A461946804660
:1034B000174E386808F092F800231A46194630680B
:1034C000144D08F08BF800231A461946286808F0B6
:1034D00085F8114C00231A461946206808F07EF83A
:1034E0004046FFF7F7FE00231A461946386808F0F1
:1034F00075F800231A461946306808F06FF8002363
:103500001A461946286808F069F8E3E788C40720D6
:1035100098C40720D0C4072094C4072010B50446DF
:10352000FFF76BFC2046FFF763FC052006F01FFC4D
:103530002046FFF762FC142006F019FC2046FFF736
:1035400057FC962006F013FC2046EF21FFF79DFC68
:1035500020460321FFF7AAFC20468021FFF7A6FCA6
:1035600020460221FFF7A2FC2046CF21FFF78DFC69
:1035700020460021FFF79AFC2046C121FFF796FC68
:1035800020463021FFF792FC2046ED21FFF77DFC1D
:1035900020466421FFF78AFC20460321FFF786FCC2
:1035A00020461221FFF782FC20468121FFF77EFC96
:1035B0002046E821FFF769FC20468521FFF776FCCD
:1035C00020460021FFF772FC20467821FFF76EFCB1
:1035D0002046CB21FFF759FC20463921FFF766FC36
:1035E00020462C21FFF762FC20460021FFF75EFCFD
:1035F00020463421FFF75AFC20460221FFF756FCF3
:103600002046F721FFF741FC20462021FFF74EFC22
:103610002046EA21FFF739FC20460021FFF746FC4F
:1036200020460021FFF742FC2046C021FFF72DFC79
:1036300020462321FFF73AFC2046C121FFF725FC55
:1036400020461021FFF732FC2046C521FFF71DFC64
:1036500020463E21FFF72AFC20462821FFF726FCC2
:103660002046C721FFF711FC20468621FFF71EFCEC
:1036700020463621FFF709FC20464821FFF716FCBB
:1036800020463A21FFF701FC20465521FFF70EFCAA
:103690002046B121FFF7F9FB20460021FFF706FC89
:1036A00020461821FFF702FC2046B621FFF7EDFB6C
:1036B00020460821FFF7FAFB20468221FFF7F6FBA0
:1036C00020462721FFF7F2FB2046F221FFF7DDFB22
:1036D00020460021FFF7EAFB20462621FFF7D5FB15
:1036E00020460121FFF7E2FB2046E021FFF7CDFB5A
:1036F00020460F21FFF7DAFB20463121FFF7D6FBEA
:1037000020462B21FFF7D2FB20460C21FFF7CEFBF2
:1037100020460E21FFF7CAFB20460821FFF7C6FB13
:1037200020464E21FFF7C2FB2046F121FFF7BEFBEA
:1037300020463721FFF7BAFB20460721FFF7B6FBEB
:1037400020461021FFF7B2FB20460321FFF7AEFB16
:1037500020460E21FFF7AAFB20460921FFF7A6FB12
:1037600020460021FFF7A2FB2046E121FFF78DFB59
:1037700020460021FFF79AFB20460E21FFF796FB1B
:1037800020461421FFF792FB20460321FFF78EFB12
:1037900020461121FFF78AFB20460721FFF786FB11
:1037A00020463121FFF782FB2046C121FFF77EFB37
:1037B00020464821FFF77AFB20460821FFF776FBD9
:1037C00020460F21FFF772FB20460C21FFF76EFB0E
:1037D00020463121FFF76AFB20463621FFF766FBC2
:1037E00020460F21FFF762FB11212046FFF74DFB1A
:1037F000782006F0BCFA29212046FFF746FB204638
:10380000FFF779FC03220021012007F0C5FE0C4BD5
:10381000032218600021012007F0BEFE094B03229D
:1038200018600021012007F0B7FE074B0322186043
:103830000021012007F0B0FE044B1860012010BDEC
:1038400088C4072098C40720D0C4072094C4072048
:1038500010B5054C204609F0F9FE2046BDE81040A1
:10386000024A0349FCF770BD80C40720B4C3072097
:1038700065D7010013B5642300241A461946019444
:103880000094204606F0AEFB204606F019FD06F037
:1038900023FD0A4B1868FFF77FF803222146012019
:1038A00007F07AFE064A106020B1234622462146E0
:1038B00007F094FE012002B010BD00BFD8C407205D
:1038C000DCC407200120704708B5002006F098FCF2
:1038D00010B1002006F0F4FCBDE8084000F0C4BCC4
:1038E00008B500F06BF9084800231A46194600682D
:1038F00007F07AFF38B1054B1978054B1868BDE819
:10390000084000F027BC08BDDCC40720E0C4072045
:10391000D8C4072070B50E4D04462868FFF716F985
:103920002868FFF747F80B4B1870286800F080FAFA
:103930000520B4FBF0F000EB8000231A07D1BDE8AE
:10394000704005481A461946006807F047BE70BD2A
:10395000D8C40720E0C40720DCC407207047FFFF5D
:1039600038B5074C236833B92C20FCF789FC054691
:1039700007F0FEF825602268024B1A6038BD00BFD0
:10398000D4C40720D8C407207047FFF773BFFFF7E0
:1039900099BF10B50446FCF777FC204610BDFFFF29
:1039A00070B50B4E05010B4B741953F82010201DF8
:1039B00008F0D6FAE368A0689847A3687059013305
:1039C000A36000231A46BDE87040194607F006BE02
:1039D000E4C407207428040008B50020FFF7E0FFC6
:1039E000FBE708B50120FFF7DBFFFBE708B5022086
:1039F000FFF7D6FFFBE708B50320FFF7D1FFFBE792
:103A0000F7B507460D462D4A00240D2312682C49B0
:103A1000009405F0FDFE2B4B87F831503B602A4D9A
:103A20002A4B0322EB602A4B2146EB61294B0120F4
:103A3000EB62294BEB6307F0AFFD032228602146C0
:103A4000012007F0A9FD032228612146012007F08B
:103A5000A3FD224B28621E680523C6F38F06009340
:103A6000324623461E4901941E4808F027F80623D3
:103A70000093324623461C4901941C4808F01EF866
:103A8000072300930194234632461949194808F048
:103A900015F897F8313073B103222146012007F061
:103AA0007BFD082328633246009301942346124984
:103AB000124808F003F8384603B0F0BDC4270400EC
:103AC000D82704008C280400E4C40720C93801006A
:103AD000E1380100153901005D390100C0270400FB
:103AE000DF270400D9390100E3270400E33901008E
:103AF000E8270400ED390100EE270400F739010042
:103B000038B517480C46415C00230131C9B29142D7
:103B100002D00155184638BD124D035520012858D2
:103B20001A46194607F060FE0546B0B90E4B53F829
:103B30002440204625F084FB204626F017FC2B4627
:103B400002462146094802F083F8094A094B9A6463
:103B50004FF08043AA221A721D70012038BD00BFA9
:103B600024C50720E4C40720C8270400F527040063
:103B7000EFBEADDE00400240044608B5012008F06B
:103B80001BFA94F8313023B1012203212046FFF7BC
:103B9000B7FF0A2202212046FFF7B2FF0028EDD02E
:103BA0000A2201212046FFF7ABFF0028E6D00A22B7
:103BB00000212046FFF7A4FFE0E7FFFF7FB5984C08
:103BC000984D994E00226946104606F0D3FA002817
:103BD0006BD0019A9DF802305F3A03F00F03042A7C
:103BE000F0D801A151F822F0FD3B0100293C010071
:103BF000533C0100C53B01007D3C0100012B0AD173
:103C00008A4B9DF808101A7861F300021A705A68FE
:103C10006FF35F025A60FEF771F80B2101F080FE2E
:103C2000FEF77EF801213DE0012B09D133789DF8A4
:103C3000082062F30003337073686FF35F037360EF
:103C4000FEF75CF8162101F06BFEFEF769F8022121
:103C500028E0012B09D12B789DF8082062F300039E
:103C60002B706B686FF35F036B60FEF747F82121E1
:103C700001F056FEFEF754F8032113E0012B09D1A1
:103C800023789DF8082062F30003237063686FF3C4
:103C90005F036360FEF732F8372101F041FEFEF763
:103CA0003FF8042101F08AFE8CE742F20F745F4A6C
:103CB00053681079C3F35E01A14294BF002401242C
:103CC00064F30000C607107105D45368643161F3D2
:103CD0005F03536017E013F0010314D142F2107137
:103CE000136061F35F03536003F0210343F00103AA
:103CF0001371FEF703F80A2101F012FEFEF710F827
:103D0000012101F06FFE42F20F74474A53681079A7
:103D1000C3F35E01A14294BF0024012464F30000B8
:103D2000C507107105D45368643161F35F035360B4
:103D300017E013F0010314D142F21071136061F324
:103D40005F03536003F0210343F001031371FDF798
:103D5000D5FF142101F0E4FDFDF7E2FF022101F09F
:103D600041FE42F20F742F4A53681079C3F35E018B
:103D7000A14294BF0024012464F30000C407107121
:103D800005D45368643161F35F03536017E013F0A7
:103D9000010314D142F21071136061F35F035360A9
:103DA00003F0210343F001031371FDF7A7FF1E2168
:103DB00001F0B6FDFDF7B4FF032101F013FE42F25E
:103DC0000F74174A53681079C3F35E01A14294BF80
:103DD0000024012464F300001071C00705D4536867
:103DE000643161F35F03536017E013F0010314D1F2
:103DF00042F21071136061F35F03536003F021031B
:103E000043F001031371FDF779FF322101F088FDC2
:103E1000FDF786FF042101F0E5FD04B070BD00BF91
:103E200030C5072038C5072040C5072028C5072012
:103E30002DE9F047054690B0002206A9104606F08D
:103E400099F9002800F04A81A86907F099FD044615
:103E5000002840F04381079B9DF81A00B3F5C87F06
:103E600000F00F0040F086800828E5D19DF8222060
:103E70009DF823809DF821309DF82010120442EA1D
:103E800003234FEA08600B4300F07C50184322F0F4
:103E900083F895A3D3E9002322F0F4F80022984B8D
:103EA00021F03CFF06460F469DF824309DF8250082
:103EB0009B0043EA981343EA80239DF82600DFF82D
:103EC00090A243EA80439DF82700CAE90067800674
:103ED00000F07050184322F05FF883A3D3E9002369
:103EE00022F0D0F80022864B21F018FF8046894648
:103EF000DAF81030214664F35F03CAF8103012225A
:103F00004C230BA80A93CAE9028923F05CFF7D4B7E
:103F10007D4CC3E9006732463B467C496846C4E9AC
:103F2000008925F00DFCD4E90023784903A825F089
:103F300007FC69460AA825F0B6FC75490AA825F0D1
:103F4000B2FC03A90AA825F0AEFC0AA928464FF046
:103F5000FF3206F043FEDAE900236E4815F0E3FD78
:103F60006D4915F0BFFDDAE9022315F0DCFD15F00F
:103F7000A5FC61E750D8652B1AD104287FF45CAF0B
:103F8000664B9DF823609DF82000DE705E689DF80A
:103F900021209DF8221064F35F0618705A70997002
:103FA0005E605F4B18605F4B19605F4B1A6043E7C0
:103FB00040F22D1293427FF43FAF03287FF43CAFD1
:103FC0009DF8200021F0E8FF49A3D3E9002322F067
:103FD00059F822F039FB554E9DF8223007463060E3
:103FE0001B029DF8210003F47063184321F0D4FFF5
:103FF00041A3D3E9002322F045F822F025FBB36862
:10400000706064F35F03B360384622F041FE484BB2
:104010001860FEF75DFE0FE7B3F5CA7F19D10128DE
:104020007FF40AAF434B9DF8202059681A7064F35F
:104030005F015960002A7FF4FFAE3F4C26681EB92D
:10404000FCF71EF9067020600421206801F0DEFCF8
:10405000F2E6B3F5CB7F18D101287FF4EDAE374BF4
:104060009DF820200AA91A705A68284664F35F0256
:104070005A60334B1A889B78ADF828204FF0FF32F6
:104080008DF82A3006F0AAFDD6E640F2911293424E
:104090007FF4D2AE08282B4B2B4912D1BDF8222039
:1040A000BDF82000140444BF6FEA42426FEA524256
:1040B0005A60099A18809A60DA6808606FF35F02A4
:1040C000DA60224C5B6808682360FEF7FBFD20681D
:1040D000FEF704FE2068FEF707FEADE610B0BDE86F
:1040E000F08700BFAFF300808DEDB5A0F7C6B03EFE
:1040F0009A9999999999B93F7B14AE47E17A843F8F
:104100000080664078C50720A0C50720A4280400C9
:10411000F63004007CCC0720B61B040070C50720D5
:104120004CC50720C0C5072080C50720B4C507209F
:10413000B0C5072050C50720F0C30720A8C5072039
:10414000A72804005CC5072048C5072058C50720DC
:1041500088C5072010B504468CB0002960D04F23D5
:10416000089300230A930993CDF82B302D4B0A2294
:1041700001A91868FEF75DFE2B4B0A2202A91868F8
:10418000FEF757FE294B0A22186803A9FEF751FED5
:1041900002A908A825F087FB254908A825F083FB7C
:1041A00003A908A825F07FFB214908A825F07BFB7F
:1041B00001A908A825F077FB1D4908A825F073FB85
:1041C0001C4908A825F06FFB214608A8FEF750FD02
:1041D00044230693184B0A22186804A9FEF729FE07
:1041E00004A906A825F05FFB144906A825F05BFB8F
:1041F000214606A8FEF73CFD53230793104B0A22E5
:10420000186805A9FEF715FE05A907A825F04BFBC0
:104210000A4907A825F047FB214607A8FEF728FD15
:104220000CB010BD4CC50720C0C5072080C50720B5
:10423000F6300400AA28040048C507202C11040009
:10424000B0C5072010B5054C204609F0FFF92046FF
:10425000BDE81040024A0349FCF776B86CC5072058
:10426000B4C3072065D7010007B5012102AA0023C6
:1042700002F8081D62208DF807308DF806308DF8A1
:1042800005308DF804308DF803308DF802308DF84C
:104290000130FEF7F4FC03B05DF804FB07B50F4AEC
:1042A00001211378532043F00103137002AA002365
:1042B00002F8081D8DF807308DF806308DF80530AE
:1042C0008DF804308DF803308DF802308DF8013010
:1042D000FEF7D5FC03B05DF804FB00BFCCC507209A
:1042E00007B50F4A01211378542043F001031370DE
:1042F00002AA002302F8081D8DF807308DF8063059
:104300008DF805308DF804308DF803308DF80230CB
:104310008DF80130FEF7B3FC03B05DF804FB00BF7D
:10432000C4C5072007B5114B02AA0B2102F8081DCE
:10433000197040F2F910002301218DF807308DF833
:1043400006308DF805308DF804308DF803308DF887
:1043500002308DF80130FEF792FCFDF7E1FC0121FF
:1043600001F02CFB03B05DF804FB00BFD4C50720AF
:10437000F7B5454C454FC4E9000100264448C4E95F
:10438000022324F0ADFED4E9000132463B4622F080
:10439000EBF808B1C4E90067D4E900013D4F0026FD
:1043A00032463B4622F0FEF810B1374BC3E90067B6
:1043B000D4E900010022374B21F0B2FC30A3D3E94D
:1043C000002321F089FF0022334B21F0A9FC22F0C9
:1043D0001BF920F04040030A2C4F8DF801300026D5
:1043E000030C8DF800008DF80230050E3246D4E93A
:1043F00002013B4622F0B8F810B1234BC3E9026733
:10440000D4E90201234F002632463B4622F0CAF887
:1044100010B11D4BC3E90267D4E9020100221D4B14
:1044200021F07EFC16A3D3E9002321F055FF0022E2
:10443000194B21F075FC22F0E7F820F040439A0870
:104440008DF804209A0A45EA80108DF805209A0C10
:104450008DF803008DF806209B0E6A46082140F275
:10446000F7108DF80730FEF70AFC20B1FDF758FC75
:10447000022101F0CBFA03B0F0BD00BFAFF3008022
:104480008DEDB5A0F7C6B03EE0C50720008066C040
:10449000AD280400008066400000E03F704708B58A
:1044A00001F0E4F8012008BD10B50446FBF7ECFE6E
:1044B000204610BD37B59020FBF7E2FE04460321ED
:1044C000FDF76EFF204605F075F93420FBF7D8FEA6
:1044D000054600244FF4007212490094042305F0AD
:1044E00097F9114B28462B6005F064F93420FBF74F
:1044F000C7FE05462146FFF783FA284605F05AF91C
:104500003420FBF7BDFE05460221FEF70BFC2846D2
:1045100005F050F92046214605F05AF94FF0FF30DA
:1045200003B030BD19180400D828040010B54FF6A8
:10453000FF74242303FB0101884209D043782BB187
:10454000038C1344A34228BF234603842430F3E79B
:1045500010BDFFFF37B5002302A840F8043D0C4B07
:1045600004215B6898470B4B019A1C680546141B95
:104570001A60042122460848FFF7D8FF224602218C
:104580000648FFF7D3FF281C18BF012003B030BD39
:10459000F8C50720C8C607200CC60720E5C60720B7
:1045A00008B50B4B197803788B420A4B0BBF1A885E
:1045B0009A880132013214BF9A801A80064B8170AA
:1045C000DB6820219847003018BF012008BD00BFDC
:1045D00029C007209DC60720F8C507200A4B02788E
:1045E0001B789A42094B0BBFDA881A8901320132D3
:1045F0000CBFDA801A810379C3F3C202073262F377
:10460000C5030371FFF7CCBF29C007209DC6072053
:1046100010B50749002311F823409A00844202D1C3
:104620000348104410BD0133042BF4D1002010BD09
:10463000B7C6072070B1C3780133DBB2FF2BC3705C
:1046400008D105480023C118CA7804335208102B3A
:10465000CA70F8D1704700BFB7C60720242202FBFA
:1046600001010346024630B5914206D01446243279
:1046700012F8235C002DF7D10FE004460025994283
:104680000BD01A79C2F3C2001A8C42EA0042AA4245
:1046900084BF1C4615462433F1E7204630BDFFFF9A
:1046A00038B50546C90001F10804FFF753FF1C4B5C
:1046B0002A781B789A4204D102211A48FFF7CEFFCC
:1046C0000CE004211848FFF7C9FFEB7833B990F8E4
:1046D0002330042443F0800380F82330002380F843
:1046E000203080F8213002462B4690F8231080F8C5
:1046F000224021F07F01C4F306240C4380F82340BC
:1047000005F1200153F8044B8B4242F8044BF9D1D8
:10471000064A0379127862F3C503037138BD00BFFE
:1047200029C00720E5C607200CC6072028C007209F
:1047300008B5FFF76DFF0346D8B9FFF769FF0346D9
:10474000B8B90D4AD378D179D07A8B4296BF194641
:10475000131D1346814294BF0846084BD17B084A7B
:10476000814238BF1346074900221A60CA7A0132D3
:10477000CA72184608BD00BFB7C60720BFC60720CB
:10478000C3C607209DC607202DE9F84F05460C46F5
:104790004FF0240909FB0219DFF868A1DFF868B1BE
:1047A0004E1C4FF000084C4500F09A8094F82330DE
:1047B0001A0624D5B5B12A7861788A4205D16F7876
:1047C00016F8010C874200F08D80E87850B16878C7
:1047D000884207D116F8011C914203D1A979A27928
:1047E00091427FD094F82220218C03F07F0342EA8B
:1047F0000323994271DB2046FFF7D2FE72E0627814
:10480000002A6AD06DB3297901F0C001C02917D1FF
:1048100016F8010C6978884202D12878904261D05C
:10482000E778A87887420CD191420AD116F8010C9A
:104830002978884205D1A079A979884201D151E02F
:1048400079B1A878E17888420BD16978914208D192
:1048500016F8010C2978884203D1A079A9798842F9
:1048600046D094F82210208C03F07F0341EA032302
:10487000984232DB237984F82080C3F3C201CFB29F
:1048800084F821801FB12046FFF7A8FE25E003F041
:10489000C003C02B19D016F8010C9AF800309842CA
:1048A00013D1E3789A4210D07BB16379032262F38B
:1048B00007136371E1702046FFF790FE23799BF8A0
:1048C000002062F3C503237100E001276078FFF741
:1048D0009FFE08B1C0F8008027B92434243662E76F
:1048E000BDE8F88F24220021204623F06CFAF4E77B
:1048F000237984F820806FF3C50384F82180237125
:10490000EBE700BF29C0072028C00720431EDBB209
:10491000FD2B9DBF024B187001200020704700BF87
:1049200029C00720014B1878704700BF29C0072015
:1049300007289CBF014B1870704700BF28C0072094
:104940002DE9F743044691461E469DF828500F4630
:10495000002966D0364B93F80080414563D00F2E76
:1049600061D8002861D02022002123F02CFAFF2FEB
:10497000237914BF09F00302002262F38713032294
:1049800062F302032B4A6770127884F8008062F3A6
:10499000C503294A2371137884F802800133DBB2FE
:1049A0001370A3710BAB019315B94FF001081BE015
:1049B00004F10809019AE0791346526853F8081B7C
:1049C00000EB02085FFA88F8013DB8F1180F019377
:1049D000EDB207D8484423F0D0F984F80780002DC1
:1049E000E8D1E2E74FF00008DFF8509001233846A5
:1049F00089F80030FFF70CFE0546FFF71BFE002389
:104A000089F80030637925B966F307136371E5709F
:104A100005E0AA7862F3071363716B78E370404690
:104A200003E0084601E00020FFE703B0BDE8F083A3
:104A300029C0072028C007209CC60720A9C6072038
:104A4000124B012270B51A7004461E4608B90025A3
:104A500018E0FFF7A5FD05460028F8D0237903F0FC
:104A6000C003402B06D0C02B0AD1E37853B1627843
:104A70009A4207D0617920460909FFF711FE01E04B
:104A8000802BF7D000233370284670BDA9C60720BD
:104A900082B02DE9F0439146421ED2B28DB0FD2A7C
:104AA00005460E4615939DF8688001D9002057E011
:104AB000002BFBD0179F002FF8D0199B002BF5D0AF
:104AC000189B002BF2D0169B002BEFD04822002120
:104AD000264823F078F990220021254823F073F925
:104AE00010220021234823F06EF9234B00241C6080
:104AF0005C609C60214B1C605C609C60204B1D7066
:104B0000204B214D1E7015AE0FCE0FC533681822F5
:104B100021461E482B6023F056F9494617221B48B0
:104B200025F06AFC21462046B8470028BED0B8F1DF
:104B3000000F02D1FFF70EFD12E006230293144B83
:104B40002246019301230093FF2104A8FFF7F8FEFA
:104B50000028ABD004A8FFF773FF0028A6D0E9E730
:104B60000DB0BDE8F04302B0704700BFE5C60720B6
:104B70000CC60720B7C60720ABC607209DC6072076
:104B800029C00720AAC60720F8C50720CCC60720E1
:104B9000F028040030B5182B8DB016D8B2FA82F484
:104BA0001D1C18BF01256409AC420ED0029301926E
:104BB00000950A469DF84030014604A8FFF7C0FE64
:104BC00018B104A8FFF73CFF00E000200DB030BD95
:104BD00013B5537914781B09009302460B462046FF
:104BE0000321FFF7D7FF02B010BDFFFF00231A46D5
:104BF00030B5084C14F82350990035B1904202D1D9
:104C00000448084430BD0132D2B20133042BF1D143
:104C1000002030BDB7C6072000231846044A12F80A
:104C2000231009B10130C0B20133042BF7D1704712
:104C3000B7C607202DE9F04188B020220021684640
:104C400023F0C1F8A14B1B7803F0FF04002B40F0C8
:104C500039819F4F20213B6968469847002800F022
:104C600084809C4D6B8801336B80FFF7D5FF9DF8E6
:104C70000420A87202F00703032B04D0964A13788D
:104C800043F0010309E0954B1D789DF80230AB42DB
:104C900005D1914A137843F002031370E4E0C2F3A4
:104CA000C2029DF800E09DF806008D49D6B204EBE3
:104CB000440313F801C0F4450BD10B4493F801C031
:104CC000844506D1997801248E1B18BF01269A705D
:104CD00018E00134042CEAD182490B689A70804AAA
:104CE000587002F10900834283F800E040F0C98067
:104CF0000A609DF800009DF80230834240F0C480B5
:104D0000002426469DF80200FFF712FD9DF80220C0
:104D100002709DF80220427000228270FFF78AFC28
:104D200004B116B39DF80030AB4200F09C809DF8B2
:104D30000160FF2E1BD13B6820216846984720B9AF
:104D4000654A137843F0040313709DF8053003F0AF
:104D50000F02511C61F303038DF80530C3F30313F5
:104D60009A4202DA6846FFF71BFC00247CE0B54259
:104D70002BD164B99DF807304BB13B6820216846C0
:104D8000984720B9544A137843F0040313709DF8F0
:104D9000043003F0C003402B12D19DF807306A465F
:104DA00013B91821504808E00C214A48FFF710FFBA
:104DB000002858D100216A460846FFF709FF52E053
:104DC0009DF80330002B4ED1F4E7484B1B78002BA5
:104DD000CBD09DF8054004F00F074FEA1418474563
:104DE000C3DA013767F303043046FFF711FC8DF88F
:104DF00005409DF80340A54221D19DF8041001F023
:104E0000C001402906D0A1F180035A425A411446FC
:104E100010B90CE0012260B1C029437805D19E424F
:104E200003D0003318BF012304E0002302E0C029AF
:104E30000ED10346134303F0010420B908E094B9EE
:104E400008B941460CE043788DF80330857802E0DC
:104E500000258DF803506846FFF7A2FB1CB12946D8
:104E60006846FFF71DFC6C46FFF774FB20460422E2
:104E70001F49FFF789FC02221E492046FFF784FCE8
:104E800020E003330B6034E785423FF439AFFFF78E
:104E90004FFC0446FFF7CEFB23783BB19DF805306D
:104EA000A27803F00F0393423FF72AAF9DF800303A
:104EB00023709DF8023063709DF80530C3F303033F
:104EC000A3701DE708B0BDE8F08100BFA9C60720A8
:104ED000F8C507209DC60720E4C6072029C0072083
:104EE000ABC6072024C00720CCC60720AAC60720CF
:104EF0000CC60720E5C6072000231846094AD1182A
:104F0000497809B10130C0B22433902BF7D1064B58
:104F10005A780AB10130C0B293F825300BB1013094
:104F2000C0B270470CC60720E5C6072008B5FFF7DA
:104F30006FFB064B28B18278187802FB0000C00096
:104F400008BD18781823584308BD00BF28C00720A3
:104F500003490B6803604B6843608B68836070474C
:104F60009DC6072070B53E4C4FF48035E5613D4C41
:104F7000A0602046C5683B4CED06FBD4A0680D46FA
:104F8000C0B20BB923465FE02346002A63D0072A4C
:104F90000E782DDD9E604E78083A9E608E789E6079
:104FA000CE789E600E799E604E799E608E799E606E
:104FB00001F10806C979996099694907FCD5A1688A
:104FC0002970A1686970A168A970A168E970D968A1
:104FD000C906FCD4A168083505F8041CA16805F8C9
:104FE000031CA16805F8021CA16805F8011C1AE061
:104FF000032A1ADD9E604E78043A9E608E789E6089
:105000000E1DC9789960D968C906FCD4A168043519
:1050100005F8041CA16805F8031CA16805F8021C2A
:10502000A16805F8011C3146AFE701319E60013AE5
:10503000DE68F606FCD4A668013505F8016CA4E725
:10504000E668F606FCD4A6686E1AB24203DD15F8CF
:10505000016B9E60F4E7024B4FF480329A6170BDA1
:1050600000C009200080084007B5002302A901F80C
:10507000013D01231A4600F01F00FFF773FF9DF862
:10508000070003B05DF804FB13B502AC04F8011D82
:1050900000F01F0000230122214640F02000FFF70E
:1050A00061FF02B010BD08B51720FFF7DDFFC0F3A8
:1050B000001008BD70210720FFF7E6BF0A46002355
:1050C0000146A020FFF74EBF08B50020FFF7CCFF38
:1050D000BDE8084000F0FE010020FFF7D5BFFFFF4C
:1050E000024B4FF08072DA61704700BF20C0092088
:1050F00008B50020FFF7B8FF40F00101C9B2002059
:10510000FFF7C2FF024B4FF080729A6108BD00BFEB
:1051100020C0092020210720FFF7B6BF00231A4630
:105120001946E120FFF71EBF37B504460D46FFF7CD
:10513000F5FF20462946FFF7C1FF0D4B4FF0807267
:105140001C469A610022ADF80620BDF806300133F6
:105150009BB2ADF8063033B94FF08073E361FFF7CF
:10516000DDFF03B030BDFFF79EFF0028EDD0F3E771
:1051700020C0092008B51720FFF776FF00F00100D6
:1051800080F0010008BD40210720FFF77DBF08B572
:105190000A46012301466120FFF7E4FEC0F3420006
:1051A00008BD00231A461946E220FFF7DBBE70B5A2
:1051B000064600200D461446FFF756FF16B100F0D4
:1051C000BF0002E040F04000C0B215B100F0DF01C6
:1051D00001E040F0200114B101F0EF0101E041F0E5
:1051E00010010020BDE87040FFF74EBF10B5044627
:1051F0000020FFF739FF14B900F0F7010DE0012C92
:1052000004D100F0FB0141F0080106E0022C14BFBC
:1052100040F0080140F00C01C9B20020BDE8104088
:10522000FFF732BF08B50020FFF71EFFBDE80840BA
:1052300040F00201C9B20020FFF726BF08B50020E8
:10524000FFF712FFBDE8084000F0FD010020FFF766
:105250001BBF40F6DD13984206D840F66213B0F546
:10526000166F38BF184600E01846A0F51661C9B29F
:105270000520FFF709BF10B504460620FFF7F4FE2E
:10528000FA2C00F0D70102D141F0200104E0B4F57E
:10529000FA6F08BF41F008010620BDE81040FFF793
:1052A000F3BE10B504460620FFF7DEFE032C28BF30
:1052B000032420F0060040EA4401C9B20620BDE8FC
:1052C0001040FFF7E1BEF9284FF0FA0305D9B0F519
:1052D0007A6F88BF4FF47A6000E01846B0FBF3F0B5
:1052E0000F2900F1FF30C0B228BF0F2141EA0011A1
:1052F000C9B20420FFF7C8BE1130C0B2162804D8C6
:10530000202928BF2021FFF7BFBE7047032804D003
:10531000042814BF0321022100E001210320FFF72C
:10532000B3BE0A46002301463020FFF71BBE0A46E3
:10533000002301462A20FFF715BEFFFF73B50E4676
:1053400015460446FFF72DFFFFF7E8FE2B4B4FF005
:105350008072DA61FFF772FF002211460120FFF729
:1053600026FFFFF7A7FE0220FFF740FF3046FFF7BA
:1053700070FF2846FFF77FFF0320FFF792FF03210E
:105380000220FFF781FE00210120FFF77DFE0321AF
:105390004FF4FA70FFF797FF21460020FFF7ACFFAC
:1053A00000211220FFF770FE00211320FFF76CFE92
:1053B00000211420FFF768FE00211520FFF764FE8E
:1053C00000211620FFF760FE0D4B18681B79009036
:1053D00005208DF80430FFF799FF68460521FFF797
:1053E000A0FF05216846FFF7A2FFFFF71BFF4FF460
:1053F000FA6004F0A7FC02B070BD00BF20C0092015
:10540000F728040070B5174E326822B92021032016
:1054100006F0C2F83060144D2A6822B9202101201C
:1054200006F0BAF82860114C216821B90322012046
:1054300006F0B2F820604FF4FA6240F6C311202063
:10544000FFF77CFFFFF754FE1620094A012104F004
:10545000BBFF306828B1286818B12068003018BF39
:10546000012070BD34C7072030C7072038C7072088
:105470001D55010070B50379014603F0C003C02B30
:105480000CBF0E4B0E4B88B01D68002306461A4613
:10549000284606F0A3F8044660B90346024669466A
:1054A000284606F0A1F9234622463146284606F052
:1054B00095F80446204608B070BD00BF30C70720ED
:1054C00034C7072038B504460D46FFF72BFA23787A
:1054D00083420AD0E37843B923F0E4FEBD2300F011
:1054E000030000FB033004F02DFCFFF7F9FDFFF78C
:1054F000EBFDA9B22046FFF717FEFFF70BFEFFF703
:10550000F7FD06F075FF022804D1034B002118684F
:1055100006F038F9012038BD38C7072007B5002349
:1055200002A941F8043D084B186806F02BF9019BCD
:105530003BB1064B4FF080521A60BFF34F8FBFF361
:105540006F8F03B05DF804FB38C7072004ED00E05F
:1055500038B504460D46FFF70DFE48B1A9B2204606
:10556000FFF715FEFFF706FE08B9FFF70CFE012056
:1055700038BD2DE9704305460E46144606F038FF47
:10558000022807D1224600233146284606F02CF98E
:10559000C4B21DE007F0DCFA4FF47A72002321F068
:1055A000BDFB10EB040841F1000900231A46314607
:1055B000284606F019F9C4B254B907F0C9FA4FF4F5
:1055C0007A72002321F0AAFB894508BF8045ECD2FE
:1055D0002046BDE87083042938B5054603D1041C74
:1055E00018BF012400E0002407F0B2FA2CB14FF4F8
:1055F0007A72002321F092FB2860204638BDFFFF1D
:1056000000B50C4B8DB009930B4B0C4A0B930C4B14
:105610000A930CAB43F8102D002204920FCB8DE8B7
:105620000F00084B084A01216A20FFF731FA0DB03C
:105630005DF804FB0554010051550100D7550100E8
:10564000C554010075540100FC280400024B0A46B1
:1056500001461868FFF78DBF34C70720024B0A4682
:1056600001461868FFF785BF30C7072008B506F068
:10567000BFFE0F4B02285B6913D15A020DD5FFF70D
:105680003BFC00280B484FF0000314BF01224FF0F1
:10569000FF321946006806F0A7F8BDE80840FFF79A
:1056A000C9BA5B02F9D5FFF727FC0028F5D108BD80
:1056B00000C0092038C70720F0B5864687B0114FD3
:1056C0004C1101F01F0501AE457004700FCF0FC6DD
:1056D00070463B680321336006AB03EB840353F849
:1056E000143C6D00CEF80430E30003F1804303F571
:1056F00030331A6801FA05F522EA05051D6007B086
:10570000F0BD00BF04290400416840780A68012305
:10571000834022EA03030B607047416840780A68BF
:105720000123834013430B60704741784268012393
:105730008B40936170474178426801238B40D3616D
:105740007047FFFF30B543780578064C5B0054F88E
:105750003520032101FA03F322EA030344F835302C
:1057600030BD00BF40C0024010B5094A0478012393
:10577000407821B152F8241083400B4304E052F8E2
:105780002410834021EA030342F8243010BD00BFF7
:1057900068C0024010B50446FFF7B6FF002120465E
:1057A000FFF7E2FF2046FFF7CDFF204610BD13466E
:1057B0000A460179006805F022BB1FB5002204AB40
:1057C000047923F8042D0222009200680A4621463B
:1057D00005F000FB9DF80C009DF80D3043EA002019
:1057E00004B010BD10B5044619222A21FFF7DFFFCF
:1057F0000D222179206805F0F1FAA0F12A03584220
:10580000584110BD044A13881F2B9FBF581C10809D
:10581000024A42F82310704740C7072044C70720B8
:10582000154AF0B513881646012B21D9134A0020DA
:105830001546013B984206DA516814680130091B8D
:1058400042F8041BF6E700210C466A684FF0010E8F
:1058500002EB52008AB2934208DD55F82270013102
:10586000B8423CBF0EFA02F21443F3E7044B1C604B
:1058700000233380F0BD00BF40C7072044C7072086
:105880003CC7072008B50121022007F0FBF8084BB0
:1058900001209A6A22F007029A629A6A42F006028E
:1058A0009A62044AD36843F03003D36008BD00BF56
:1058B0000080004000C0024008B5044B417101F077
:1058C0007F015A5C0321FFF772FF08BD182904000D
:1058D00008B5044B817101F07F015A5C0221FFF78A
:1058E00066FF08BD1829040038B504460179006830
:1058F00005F090FA054688B1002206212046FFF700
:1059000056FF002207212046FFF751FF2E21204697
:10591000FFF7D2FF2E212046FFF7DAFF284638BDD9
:10592000642370B5B1FBF3F404FB1311CCB20A216C
:10593000B4FBF1F501FB15413031C9B20646FFF762
:10594000C7FF092C88BF05F130013046BDE8704023
:1059500094BF2021C9B2FFF7AFBF01207047FFFFFE
:1059600038B50D46044606F077FE05F00F032370A8
:10597000114B15F0010F4FF0010214BFDA619A616B
:10598000227812F0020F4FF0020214BFDA619A611E
:10599000227812F0040F4FF0100214BFDA619A61FE
:1059A000227812F0080F4FF4807214BFDA619A6106
:1059B000BDE8384006F060BE20C0092038B50D466D
:1059C000044606F049FE691E012303FA01F123781B
:1059D00020461943C9B22170FFF7C2FFBDE8384025
:1059E00006F04ABE38B50D46044606F035FE691E7F
:1059F000012303FA01F12378204623EA01012170F3
:105A0000FFF7AEFFBDE8384006F036BE38B50D46AC
:105A1000044606F021FE691E012303FA01F12378F2
:105A200020465940C9B22170FFF79AFFBDE83840BF
:105A300006F022BE01207047022004F019BA0120AE
:105A40007047FFFF044B5B69180B00F00C00C3F3B9
:105A500041231843704700BF20C0092010B50446F9
:105A600081220121FFF7A3FE01222179206805F0A0
:105A7000B5F910F0600F14BF0120002010BD38B53B
:105A800000210446FFF799FE812205B2012120463C
:105A9000FFF78DFE102095FBF0F020F0DFFE4FF0B9
:105AA000765120F02FFFA16820F024FE38BDFFFFC3
:105AB00008B5FFF7E4FF054920F024FF044920F072
:105AC000D5FF4FF0844120F015FE08BD00001041C5
:105AD0000000A0402DE9F04FADF2546D0C46904609
