:020000021000EC
:10000000E03F082095010100FB000100E100010034
:10001000090101001901010029010100000000008F
:1000200000000000000000000000000091B6010088
:100030003901010000000000F1B601005901010082
:10004000D1BC0100D1BC0100D1BC0100D1BC010078
:10005000D1BC0100D1BC0100D1BC0100D1BC010068
:10006000D1BC0100D1BC0100D1BC0100D1BC010058
:10007000D1BC0100D1BC0100D1BC0100D1BC010048
:10008000D1BC0100D1BC0100D1BC0100D1BC010038
:10009000D1BC0100D1BC0100D1BC0100D1BC010028
:1000A000D1BC0100D1BC0100D1BC0100D1BC010018
:1000B000D1BC0100D1BC0100D1BC0100D1BC010008
:1000C000D1BC0100D1BC0100D1BC0100A489020057
:1000D00000C00720F4020000F8C20720A8070000B3
:1000E00004207146084203D0EFF309800BF00EBEE6
:1000F000EFF308800BF00ABE704708B5014808F01E
:10010000C1F9FEE73281020008B5024808F0BAF9E9
:10011000FEE700BF3D81020008B5024808F0B2F9D1
:10012000FEE700BF4881020008B5024808F0AAF9BE
:10013000FEE700BF5381020008B5024808F0A2F9AB
:10014000FEE700BF6081020008B5024808F09AF996
:10015000FEE700BF6E81020008B50BF051FA0BF00C
:10016000E9FABDE808400BF05FBA0B4610B5401A3B
:100170005C1AA24203D9C45843F8044BF8E710BDF7
:10018000034610B500221C1AA14202D943F8042BE1
:10019000F9E710BD16480BF06FFB15480BF06FFB2D
:1001A000144C154DAC4201D3144D07E094E8030004
:1001B0000C3454F8042CFFF7D8FFF3E7AC4206D216
:1001C00054F8080B54F8041CFFF7DAFFF6E70FF0B9
:1001D000ADF80BF06BFB01F0D9FD03F07EFA4FF4A4
:1001E00016400BF0B1FE064808F04CF9FEE700BFE0
:1001F000E03F0820CC000100D8000100E000010031
:10020000828102000BF058BA0BF066BA144B10B59D
:100210001A68014612B94FF080521A60114C1868E2
:100220002468421894421A6007D20F4CA24204D8A4
:100230000E4A0B488C18046010460D4A1B68126861
:10024000934222BF064B00201A6039B1094A136855
:1002500001331360084B1860084B196010BD00BFD4
:10026000FCC2072004C30720FFBF0720A0CA072045
:1002700008C307200CC30720F8C2072000C30720CB
:100280000FF08CB90FF092B90FF090B930B5044669
:100290008BB068460FF03EFC224B079A2360089B08
:1002A000214DA36062602149214B52B90A68186848
:1002B00082428ABF02F1604202F17042A2F5E82256
:1002C000626062681B68B2F5803F82BF02F17042D3
:1002D000A2F5E82262600022E2600A68934206D337
:1002E000991AC5F1005303F504230B440BE0114B9D
:1002F0001B68934208D9991AC5F1005303F5F823F6
:100300000B44002B00DDE36020460B4BE2611B68D1
:10031000A3610A4B1B686361094B1B6823610BB027
:1003200030BD00BFA00A0000A0CA0720FCC2072001
:1003300004C3072008C30720F8C2072000C3072012
:100340000CC30720034A044B1A60044A044B1A608A
:10035000704700BF0080001004C307200040082041
:1003600008C30720014B1860704700BF14C3072063
:10037000014B1860704700BF10C3072008B5024842
:1003800010F070FBFEE700BF0459020008B50248F8
:1003900010F068FBFEE700BF1E5902000020704706
:1003A00001207047F8B5084B16461A680F461C46E0
:1003B00042B10D46EB1B9E4204DD236815F8010B8C
:1003C0009847F7E73046F8BD14C30720F8B5094B46
:1003D0000F46186816461C4658B10D46EB1B9E4248
:1003E00005DD23680020984705F8010BF6E726EAAB
:1003F000E670F8BD10C30720704700207047FFFF6C
:10040000074B1B689A68824207D05A68824204D020
:10041000DB681B1A5842584170470120704700BFE3
:1004200038C10720002070470020704730B50446CF
:100430008DB0A8B3684609F087F99DF80030002513
:1004400003F03F0303939DF8013003A803F03F033B
:1004500004939DF802300B9503F01F0305939DF85C
:10046000043003F01F0306939DF8053003F00F03DB
:10047000013B0793BDF80630C3F30B03A3F26C7383
:1004800008939DF8033003F007030993BDF8083083
:10049000C3F30B03013B0A930FF0CAF984E8210070
:1004A00000200DB030BDFFFF70B50F4D0F4E2C6812
:1004B00014F0010415D128460CF0E6F888B14FF489
:1004C0000E70FFF7DDFE302380F835323A2380F8D6
:1004D000344280F8363280F83742306028460CF0DB
:1004E000DFF8306870BD00BF30C3072034C3072079
:1004F00070B50F4D0F4E2B6813F0010416D128462E
:100500000CF0C2F890B14FF40E70FFF7B9FE012362
:1005100080F83432312380F835323A2380F836328D
:1005200080F83742306028460CF0BAF8306870BD69
:1005300028C307202CC307202DE9F04FADF51B7D04
:100540000F4608F0C3FB041E04DD0BF021F8204623
:100550000AF064FD0DF114094C462A4D4FF0640B6E
:100560000FCD0FC42B6804AA2360102100240AA811
:1005700004940AF011FF244A82462449384609F0BF
:1005800097FB26460AAD4FF00008D0451CD06B699A
:10059000A34215D1AA69049B16441BB1B3FBFBF31C
:1005A000B2FBF3F3297B039202932B8C00949B0004
:1005B000019359F821306A681549384609F078FBEB
:1005C00008F101082435E0E701340A2CDAD1049B54
:1005D00064229E1BB3FBF2F30E49B6FBF3F30E4A03
:1005E0000096384609F064FB0AF0ECFB102804D9A9
:1005F00010220A49384609F05BFB01200DF51B7DEE
:10060000BDE8F08F38590200575902005C590200CA
:1006100083590200AB590200A0590200CA590200D6
:1006200010B50C46ADF5007D68460BF0D7FA2046B4
:100630004FF0FF32694609F001FB01200DF5007D06
:1006400010BDFFFF30B50C4691B02C49054608F0AF
:1006500049FA002847D00CAB04930BAB03930AABC9
:10066000029309AB019308AB009306AA07AB244998
:10067000284608F09FF9072801D000203BE09DF8AC
:100680003930069A0DA862F303038DF83930079AC2
:100690009DF8383062F304038DF83830089ABDF8BD
:1006A0003A3062F30B03ADF83A30099A9DF83630D0
:1006B00062F304038DF836300A9A9DF8353062F300
:1006C00005038DF835300B9A9DF8343062F305033D
:1006D0008DF834300C9A9DF8373062F302038DF8B0
:1006E000373009F059F809F0F3F806490246204678
:1006F00009F0DEFA012011B030BD00BFF45902004C
:10070000F85902008E790200F7B50D464E490446AD
:1007100008F0D8FA064640B107F04CFD4FF0FF3222
:100720004A49284609F08AFA8BE04949204608F0F0
:10073000C9FA60B307F062FD46490246284609F04F
:10074000B7FA07F067FD44490246284609F0B0FAB7
:1007500007F05AFD41490246284609F0A9FA3046F9
:1007600007F042FD0446012007F03EFD0646022048
:1007700007F03AFD0746032007F036FD0097019089
:10078000334622463649284609F092FA59E035495F
:10079000204608F0A7F950B120220121204608F098
:1007A0003FFA204608F090FA07F04CFE49E02E4947
:1007B000204608F097F9064620B92C49204608F053
:1007C00091F960B32A49204608F07AF960B92949BD
:1007D000204608F075F928B92046274908F070F935
:1007E000044602E0032400E002243146204607F0DC
:1007F00081FD224A224B002E18BF1A463CB1012C23
:1008000007D01C491A4B022C18BF0B4602E01D4BA7
:1008100000E0194B1C49284609F04AFA11E020462D
:1008200008F052FA194A1A490090F323012007F000
:100830006FFD204608F048FA16490246284609F09E
:1008400037FA012003B0F0BD335A0200395A0200D2
:10085000525A0200595A02006E5A0200835A02008C
:10086000A25A0200D25A0200D65A0200DE5A0200F0
:100870002E5A0200285A0200226C0200195A020065
:10088000115A0200225A0200E75A02004C59020093
:10089000005B0200335B020030B589B004AB00247A
:1008A00000930D4603AB022218490394049408F008
:1008B0008FF8022827D107AB009305AA06AB04994D
:1008C000039805940694079404F080F9024638B121
:1008D000049B0F4900932846039B09F0E9F910E0B7
:1008E000059A069B002A079908BF0122002B08BF22
:1008F0000123B1FBF3F3B1FBF2F22846054909F0FD
:10090000D7F9012000E0204609B030BDC26B0200DB
:10091000415B0200605B02002DE9F0470E46ADF539
:10092000856D3949054608F067F938490746284674
:1009300008F08BF93549284608F0A7F9284608F051
:10094000C3F90122014681A806F08AF9044640B1A4
:10095000284608F0B9F92E490246304609F0A8F9B0
:100960004CE00DF1040A01464FF4007250460EF0BF
:100970007AFE00940BF01CF9804689466B464FF4D2
:100980000072514681A806F005FA08B9009B23BB06
:1009900081A806F0CEFBCFB10BF00AF94FF47A72C2
:1009A00000230EF037FA002305464FF47A724046D2
:1009B00049460EF02FFA281A14BF03460123B4FB50
:1009C000F3F322461349304609F072F94FF0FF3233
:1009D0001149304609F032F910E01C44002FCDD106
:1009E0003D46009B9D42C9D233681AF805105B68EA
:1009F0004FF0FF32304698470135F2E701200DF500
:100A0000856DBDE8F08700BF8E5B0200C26B0200FF
:100A1000975B0200AB5B0200396102002DE9F047F1
:100A20000023BEB00C46534905460C9308F04AF922
:100A300020B9284608F048F9064600E04E4E3146F7
:100A400015A806F02FFC054630B1034632464B4947
:100A5000204609F02DF989E032464949204609F03F
:100A600027F92F460DF1780880230DA915A8CDF898
:100A70004C80149306F05AFC002861D19DF83D305B
:100A8000002B5DD09DF83C100DF13D00CA065BBF08
:100A90000D9B0C9A44229B185BBF0C932D220135B1
:100AA000013711F0010F14BF52232D23BDF83AA0D6
:100AB00011F0020F09900D9814BF4FF0480E4FF03F
:100AC0002D0E11F0040F14BF4FF0530C4FF02D0CEE
:100AD000089011F0200FCAF34510BDF838100790A8
:100AE0004FEAEA20069001F01F000590C1F3431081
:100AF0004FEA612114BF4FF041094FF02D0901F277
:100B0000BC71CDF804C0CDF800E004900391CDF89D
:100B100008901C49204609F0CBF84FF0FF321A49E3
:100B2000204609F077F841464FF0FF32204609F0A1
:100B300071F84FF0FF320F49204609F07FF891E736
:100B40003A46124900950C9B204609F0B1F80BAAD1
:100B50000CA9304606F019FC40B90B9B0C499A7859
:100B60000C9B20465A43520809F0A2F801203EB0DF
:100B7000BDE8F08739610200C65B0200C95B020074
:100B8000ED5B0200085C0200355C0200395C02008B
:100B9000635C020070B50C46064608F095F8054601
:100BA000304608F091F806F0B2FC064A064B0749B9
:100BB000002808BF13462A46204609F079F801208C
:100BC00070BD00BF195E0200235E0200775C020068
:100BD00070B50C46064608F077F80546304608F032
:100BE00073F806F037FC064A064B0749002808BF91
:100BF00013462A46204609F05BF8012070BD00BF6D
:100C0000195E0200235E0200935C02007FB503AB15
:100C1000002400930E4602AB02220F490294039473
:100C200007F0D6FE022814D1029C039D20462946D7
:100C300006F016FD094B0A49224600280CBF08465B
:100C400018462B4600900749304609F031F801203C
:100C500000E0204604B070BDC26B0200235E0200BB
:100C6000195E0200A55C020030B5ADF50D7D0C46A5
:100C7000054608F029F80A22014603A805F0F0FF0E
:100C800040B1284608F020F81F490246204609F0E6
:100C90000FF834E08DF8070002901C4942F21073FF
:100CA0007E22204609F004F81949204609F000F890
:100CB000236842F210721B680DF107012046984725
:100CC00018B19DF807307E2B03D103A806F031FA46
:100CD00015E002AB01220DF1070103A806F012F99D
:100CE00058B9029B012B08D123684FF0FF325B6893
:100CF0009DF8071020469847DAE70649D5E7012016
:100D00000DF50D7D30BD00BFBD5C0200E45C02004E
:100D10001C5D02003C5D02002DE9F04FADF5417D08
:100D2000002304AC236003930D46009403AB02221E
:100D3000414907F04DFE022806D04FF0FF323F49EF
:100D4000284608F07BFF72E0216817A806F0AAFA8F
:100D500010B122683A4906E0039917A806F0A2FAF2
:100D600028B1039A3749284608F0A2FF5FE04FF404
:100D700080720DEB020105A807F0ECFD4FF48072C4
:100D800080A90AA807F0E6FD20AE80270FA917A8C2
:100D90001596169706F0CAFA002842D19DF84530FC
:100DA000002B3ED09DF8443003F0100303F0FF0AFF
:100DB000002BEBD10DF14503039A234905A807F059
:100DC000CDFF0DF1450322681F490AA807F0C6FFB1
:100DD00005A807F079FF07460AA807F075FF8046C7
:100DE00005A8DDF83C9007F06FFF83460AA807F0DE
:100DF0006BFF534652460146CDF800A0584603F01B
:100E0000E5FE124A124BCDF8009000280CBF1846A0
:100E100010461049019043463A46284608F048FFDC
:100E2000B3E70AA807F0ABFD05A807F0A8FD01206D
:100E30000DF5417DBDE8F08FC26B0200635D0200DD
:100E4000A85D0200CD5D0200ED5D0200235E0200A0
:100E5000195E0200F35D0200F8B50D46244906460E
:100E600007F030FF0446074618B1FFF741FB0022A8
:100E700008E02049304607F025FF044660B1FFF73F
:100E800013FB3A46114600F2352006F079FC4FF08C
:100E9000FF32194B194922E01949304607F012FF79
:100EA000044658B1FFF724FB012200F2352105F07A
:100EB00099FE4FF0FF32134B134910E013493046AF
:100EC00007F000FF044680B1FFF7EEFA012200F2BE
:100ED000352105F087FE0E4B0E494FF0FF320028FA
:100EE00018BF1946284608F0A9FE2046F8BD00BFE5
:100EF0007A5E0200845E02001C5E0200125E020046
:100F0000915E0200395E0200295E02009A5E0200D4
:100F10005E5E0200505E020008B508464FF0FF32E8
:100F2000084908F08BFE07F045F94FF4FA600AF023
:100F300075F84FF08043AA221A7200221A7001201D
:100F400008BD00BFA65E020010B501200C4607F0E8
:100F5000F5FC40B100231A46194609F071FB4FF029
:100F6000FF32054902E005494FF0FF32204608F004
:100F700065FE012010BD00BFB75E0200CD5E02001D
:100F800038B5064C236833B91C20FFF779F90546BC
:100F900008F0E2FA2560206838BD00BF20C30720B2
:100FA0002DE9F04F5F4C91B023680E4633B92C20E9
:100FB000FFF766F9054608F063FD25602768FFF72F
:100FC00073FA00240CAA0DA900F235200D9406F046
:100FD000DCF948B90C9A0D9C95699378023D5C4305
:100FE0005D4364086D0800E025464F4B1A6898463B
:100FF0007AB90C20FFF744F98146FFF7C1FF90232F
:1010000089F804300023C9F80000C9F80830C8F88E
:101010000090D8F8000003F0C7FD81460DF0B4FE43
:101020000A900DF00DFD014648460DF053FC3F4976
:101030000DF05AFD0DF0A8FE81460DA80AF02CFC1B
:1010400004F008FD68B308F0BDFC04F0EDFC4FF0BF
:10105000000A0346D346D0469A450B930BD0504620
:1010600004F046FD804538BFD3460B9B38BF804611
:101070000AF1010AF0E708F0BDFC642303FB08F362
:101080002B4ACDF80880B3FBF2F3C3F1640300935D
:10109000CDF804B02B4622462649304608F008FE1B
:1010A00005E02B4622462449304608F001FE234C39
:1010B00023681BB90120FFF7E3F82060206803F0E4
:1010C00038FD044608F004FCFB8C0A9A0993BB8C9B
:1010D0001B4908939DF83430019003F03F030793B8
:1010E0009DF83530009403F03F0306939DF83630A9
:1010F000304603F01F030593BDF83A30C3F30B03EA
:1011000004939DF8383003F01F0303939DF83930A2
:1011100003F00F0302934B4608F0CAFD012011B003
:10112000BDE8F08F24C3072018C30720000020412A
:10113000A0860100065F02003A5F02001CC3072080
:10114000485F02002DE9F04F0D46C7B05549814672
:1011500007F0DFFC54498246484607F0DAFC534961
:101160008346484607F0D5FC00270DF1100805AE70
:10117000044602970397C8F800703760BAF1000F71
:1011800045D0009603AB02AA4949484607F012FC35
:10119000012807DC28464FF0FF32464908F04EFD93
:1011A00038467CE00DF118084FF480742246394629
:1011B00040460EF058FA336813B90123336003E058
:1011C000B3F5807F88BF3460FFF7DAFE33689DF89F
:1011D0000C209DF808100093434608F02FFE364A75
:1011E000364B3749002818BF1346029A284608F0A4
:1011F0005FFD002433689C424ED2039A18F80430F5
:1012000022443049284608F053FD0134F2E7BBF18F
:10121000000F2CD0CDF8008003AB02AA2A49484623
:1012200007F0C8FB032807D028464FF0FF322749B4
:1012300008F004FD504632E0FFF7A2FE98F80030B7
:101240009DF80C209DF8081008F00DFE48B1039B96
:101250001F490093D8F80020029B284608F028FD7B
:101260001AE0029A1B49284608F022FD14E0A8B1B2
:1012700002230293029BFE2B10DCFFF781FE9DF8F8
:10128000081008F0FBFD20B1029A1349284608F027
:101290000FFD029B0233ECE7012000E0204647B03F
:1012A000BDE8F08FE16C0200B15F0200B75F0200A1
:1012B000C05F0200CF5F0200195E0200235E0200E1
:1012C000F05F02001460020024600200346002003B
:1012D0005B600200756002009260020070B5ADF5BF
:1012E0000A7D05460C4607F05CFB0B2802DD0C224C
:1012F00022493CE0284607F0E7FC0122014601A80C
:1013000005F0AEFC064668BB01A805F012FF2846B2
:1013100007F0DAFC1A490246049B204608F0C8FC94
:10132000236820469B6898470A2009F077FE4FF013
:10133000100383F31188BFF36F8FBFF34F8F2846DD
:1013400007F0C2FC02460F4B0068516803C3906867
:101350000D4A186043F80C2C4FF08043AA221A72F1
:101360001E7007E0284607F0AFFC024607492046FA
:1013700008F09EFC01200DF50A7D70BDCC600200D6
:10138000F3600200484002400DD0ADDE3A61020039
:101390002DE9F041404CA4B023680646DB070D461A
:1013A0000CD420460BF070F940B14FF480600EF081
:1013B000F5F83A4B186020460BF072F93849304680
:1013C00007F0A7FB0746044600B38022002104A8CB
:1013D0000EF049F900230293039303AB009304AA90
:1013E00002AB3049304607F0E5FA2C49029B039ADC
:1013F000096804A813B903F085FC01E003F0A4FC1C
:10140000294B2A49002818BF194638E02849304698
:1014100007F07FFB074600283AD004AB304603AA0A
:101420002449039404948DF8084007F0C3FA039EFE
:10143000049B3344B3F5806F02DCDFF860800CE07E
:101440004FF480621C4920E0D8F800309DF8082055
:101450009A559DF8083001361C44039B049AF31AF0
:10146000934210DAB6F5806F0DDA2B684FF4FA620A
:101470001B6802A9284698470028E5D10F4928464D
:1014800008F016FC04E022460D49284608F010FC3E
:10149000384624B0BDE8F0813CC3072038C307209C
:1014A000656102006C610200536102004F6102003D
:1014B0007C610200836102008D610200B161020063
:1014C000C161020038B50D4607F000FC0446C0B209
:1014D00002F00EFB054A064B0649002818BF1346CA
:1014E0002246284608F0E4FB012038BD195E0200C0
:1014F000D2610200D961020030B50C46054687B0C2
:101500000A4908F0D5FBA1882388049121896288C3
:101510000391E18828460291E17A0191A17A009134
:10152000034908F0C5FB07B030BD00BFF061020001
:10153000266202002DE9F0418CB003AB0026009337
:101540000D46904602AB022238490296039607F0F8
:101550003FFAB04266DD02980DF0F6FDC7B203987F
:1015600018B10FF081FDC4B200E00446002104A8C8
:1015700003F05EF930B14FF0FF322D49284608F0F4
:101580005DFBF3E7022318F100010093039A234661
:1015900018BF0121384602F0EFFB064638B94FF07C
:1015A000FF322449284608F049FB01263AE0B8F109
:1015B000000F37D04FF47A7104A803F041F960B3FB
:1015C0009DF81030BB4228D19DF817300C2B04D168
:1015D0003A4606A92846FFF78FFFBCB916492846A8
:1015E00008F066FB9DF817309C420ADA04AB191923
:1015F0002B684FF0FF325B68097A28469847013420
:10160000F0E70E49284608F053FB0BE04FF0FF329D
:101610000B49284608F012FB04E0029A09492846C3
:1016200008F046FB30460CB0BDE8F081C26B02000A
:1016300044620200666202008E620200BB68020021
:10164000A2620200BF6202001FB501A80C4602F0B0
:1016500071FD02F059FA01A902462046FFF74CFF3E
:10166000012004B010BDFFFF30B58BB00AAA4FF4C3
:101670007A730C4642F8243D174907F09BF9002580
:10168000019902A803F0D4F8D8B19DF808201349B5
:10169000204608F00DFB00259DF80F309D420ADA28
:1016A00002AB591923684FF0FF325B68097A204674
:1016B00098470135F0E70A49204608F0F9FA012574
:1016C000DEE72DB94FF0FF320649204608F0B6FAA2
:1016D00001200BB030BD00BF8A610200E56202004C
:1016E00038610200FC62020037B50C4602F086FB4E
:1016F00005461649204608F0DBFA15492A462046D9
:1017000008F0D6FA1149204608F0D2FAD5B11149AD
:10171000204608F0CDFA0D49204608F0C9FA002508
:10172000E8B202F055FB013540B181784378027888
:1017300000912046084908F0BBFAF1E7034920462A
:1017400008F0B6FA012003B030BD00BF0D630200FF
:1017500028630200426302005D6302002DE9F34743
:101760003C4C074626688946002E62D12420FEF7AD
:1017700087FD0423054680E848008660C660202176
:1017800030460FF0D9F9AE68E8604FEA8608072EB8
:101790000ED81020FEF774FD8246102200210DF0B5
:1017A00062FFEB68013643F808A008F10408EEE791
:1017B000002608236B604FF00108274B274A284971
:1017C0002846009685F82080256006F065FA254BAE
:1017D000254A26492068009606F05EFA244B254AE1
:1017E00025492068009606F057FA244B244A2549DB
:1017F0002068009606F050FA234B244A24492068BA
:10180000009606F049FA234B234A24492068CDF874
:10181000008006F041FA224B224A204920680096B7
:1018200006F03AFA0096204B204A2149206806F03B
:1018300033FA2049384607F045FA18B11E493846B0
:1018400007F0FAFA4A463946206802B0BDE8F04788
:1018500006F002BB44C3072078630200B2630200B3
:10186000091B0100B96302000D640200DD180100CC
:101870001664020039640200691601003C6402002B
:101880009B690200C51401006664020082640200C4
:10189000E916010089640200F064020035150100B8
:1018A000CA640200EF640200F46402000F650200E3
:1018B00049160100396102001565020038B5064C71
:1018C000236833B95820FEF7DBFC054607F01CFF00
:1018D0002560206838BD00BF40C307202DE9F04FC8
:1018E0000446ADF2DC5D802288460DA800210DF093
:1018F000BAFE802200212DA80DF0B5FE06AE002311
:1019000033600DAA00962DAB7549204607F052F8BA
:10191000032801D00020DFE001220DA9EDA805F089
:101920009FF905460028F5D1FFF7C8FF33688022EC
:1019300080F853304DA9044608A88DF81750079534
:1019400007F008F82DAB009333680DAA65494046AF
:1019500008F0AEF9A94607AE33464FF400726DA900
:10196000EDA805F017FA002840F0AF803368002B8F
:1019700000F0AB806F1C32685B49204608F098F994
:10198000236820469B6898477D1E0DF5DA7B4FF053
:10199000000A6DAB3268C3EB0B039A4223680CD983
:1019A000CDF80CB05B684FF0FF321BF8011B2046EE
:1019B0009847039B1B789A44EBE79B68204698471F
:1019C00008A807F081F9834608A806F0EDFF4FF458
:1019D0007A7302465946204608F03EF9202201213A
:1019E0000DEB020007F01CF908A807F06FF982451B
:1019F00020D008A807F06AF9524603463B49404602
:101A000008F056F93A49204608F052F92368204672
:101A10009B68984723684FF47A721B680DF1170191
:101A2000204698470028F5D1022F07F101034CD832
:101A30001F46A0E733682DAA2E49009320464B4647
:101A400008F036F9236820469B68984708A807F0F5
:101A50003BF9824608A806F0A7FF514602464FF41C
:101A60007A73204608F0F8F8234908A807F028F808
:101A7000D0B908A807F028F920490246404608F0E6
:101A800017F91B49204608F013F9236820469B6884
:101A9000984723684FF47A721B680DF117012046AE
:101AA00098470028F5D1BFE7154908A807F0C4F901
:101AB0003368144999444A46F09B404608F0F8F8C8
:101AC000002D3FF448AFBD1E45E7EDA805F031FB02
:101AD00008A806F054FF01200DF2DC5DBDE8F08F90
:101AE0001A65020029650200406502005265020085
:101AF00038610200796502008F650200926502007C
:101B000039610200CA6502002DE9F047074686B038
:101B100006AA002442F80C4D0E463D4906F04AFF45
:101B200020220121384607F07BF8039B002B65D06B
:101B3000384606F036FF002860D0FFF7BFFE0546A6
:101B40000DF1180808F80D4D2B6805221B68414659
:101B50002846984704460028F6D1039B384685F866
:101B6000533007F0B1F8274601464FF0FF322846C0
:101B700008F064F82B6828469B689847254B0DF1C0
:101B80001809186849F8044D04902B684FF47A72CC
:101B90001B68414628469847D0B103220DF1150134
:101BA00048460DF045FD9DF80BA0042204A94846C7
:101BB0008DF817A00DF022FD50B1336801225B684B
:101BC00051463046013798470028DED10134DCE722
:101BD0001822B7FBF2F302FB137202B101333A464B
:101BE0000D49304608F064F874B161230093224631
:101BF0000A4B0B49304608F05BF805E04FF0FF3226
:101C00000849304608F01AF8012006B0BDE8F08710
:101C10008A610200CE610200D6650200FD65020005
:101C200039660200F266020001480EF01BBF00BFD9
:101C30001E67020038B504460D460AF033F9074B1B
:101C4000B0FBF3F00223B0FBF3F2AA4204D9B3F5E0
:101C5000807F01D00233F6E7236138BD40420F0098
:101C60007FB500F235260C460122314604F0BAFF5A
:101C7000054648BB039002AA03A9304605F085FB40
:101C800000BB0298039A837802FB03F18269134830
:101C9000023A5A435208B2F5004F38BF0120104BA8
:101CA0004FEA510124BF03464FF48060B1FBF0F1CD
:101CB000B2FBF0F20091019321460A480EF060FE5B
:101CC000012008E0084B00E0084B2A46214608485E
:101CD0000EF056FE002004B070BD00BF5C6702002D
:101CE0005967020066670200626702005F670200D0
:101CF0009467020038B5074C23684BB90820FEF7FB
:101D0000BFFA0546FFF73CF9402328602B71256098
:101D1000206838BD50C3072038B5054C256825B963
:101D20000120FEF7ADFA05702060206838BD00BFC5
:101D30004CC3072038B5084C23685BB90C20FEF76C
:101D40009FFA0546FFF71CF990232B7100232860AA
:101D5000AB602560206838BD18C3072010B5044C5F
:101D600023681BB90120FEF78BFA2060206810BDA4
:101D70001CC3072010B5044C23681BB90120FEF7D3
:101D80007FFA2060206810BD48C30720AD49AE4AE5
:101D90004023F0B58B614FF0007393614FF48033B3
:101DA0008B61AA4BADF5057D1868072520F0F00082
:101DB00018601868022440F050001860186820F479
:101DC00040501860086840F040000860186820F42F
:101DD0007C201860186840F428201860186820F4E7
:101DE00070001860186840F420001860186820F02F
:101DF00040401860186840F000401860586820F0B3
:101E00003C005860586840F028005860586820F03E
:101E100003005860086840F480300860586820F477
:101E200040505860086820F480000860D96821F4A8
:101E30004031D960116841F080711160596821F416
:101E400040215960596841F480215960986880495F
:101E500001409960116841F4897141F001011160FC
:101E6000996821F470119960996821F07041996026
:101E7000116821F446411160D96821F03001D96020
:101E8000D96841F03001D960D96821F47011D96066
:101E9000136843F000731360136823F080631360CA
:101EA00007F028F801210A2009F01CFE01210A2070
:101EB00009F030FE6748012105604460FFF7BAFE73
:101EC00007F010FD0121152009F00CFE012115205D
:101ED00009F020FE6048012105604460FFF7AAFE7A
:101EE000FFF74EF8642107F003FB10B95B480EF0D2
:101EF000B9FD09F033FE02F075FC10B958480EF038
:101F0000B1FD4FF4FA6006F0AEFFFFF78DFE09F069
:101F1000C9FF0CF091FD53490CF09AFE0CF03AF910
:101F200002460B4650480EF02BFD09F0AFFC052889
:101F300004AC14D1002363604C4B1B682360FFF793
:101F400073FE4B4B4B48D96C1A6D5B6D00940EF0D1
:101F500017FDFFF769FE41F2883006F084FFFEF7B7
:101F6000A3FA4549FFF77CFE054668BB43480EF0DF
:101F700007FD03F0E7FDFEF797FA29462A4600F22F
:101F8000352005F0FDFB3E4B3E4A00280CBF1046B5
:101F900018460EF067FDFEF787FA3749FFF760FE37
:101FA00090B939480EF05EFD03F04EFD014637480A
:101FB0000EF0E6FC03F038FD054603F045FD00FB9E
:101FC00005F133480EF0DCFC324E334F336813F02A
:101FD000010516D130460AF057FB90B14FF40E7050
:101FE000FEF74EF9012380F83432312380F8353280
:101FF0003A2380F8363280F83752386030460AF09B
:102000004FFB26493868264DFFF72AFE1821114854
:10201000FFF710FEFFF708FE2B684BB90820FEF70C
:102020002FF90646FEF7ACFF3823306033712E607F
:10203000286802F04EFC0546B0BB1A480EF012FDAF
:1020400033E000BF00C0092020C0092000C00240CA
:10205000F0FCFCFF0000034000800840D86702004D
:1020600009680200002474492E68020044400240BE
:102070000040024046680200BE680200C6680200D6
:10208000CC670200C76702000369020022690200F0
:102090003169020028C307202CC30720485E0200D4
:1020A00058C307204C6902000125FFF743FE02F0E8
:1020B00051FD064618B972480EF0D4FC3546FFF7BC
:1020C00019FE02F089FC064618B96E480EF0CAFCEB
:1020D00035466D4E33681BB90120FEF7D1F83060EC
:1020E000306802F047FCFFF739FE02F020FDFFF7F1
:1020F00013FE02F0AAFCFFF73DFE02F01DFDFFF704
:102100000BFE002102F0A4FC8DB9FFF78DFDFFF757
:10211000F1FD2D2102F048FCFFF7ECFD2D2102F02E
:102120004FFCFFF7F9FDFF2102F092FC0CE0FFF7F6
:10213000E1FD0546FFF7FEFD02F036FD0CF04AFE1C
:10214000C1B2284602F064FC1022002120460DF0A6
:102150008AFA00230F2221464C4802F0B1FD80B9D3
:1021600020460CF0F1FFC5B2284601F0C1FC484AF8
:10217000484B2946002818BF1346444A46480EF0EB
:10218000FFFBFFF7EBFD02F0D4FC054600200FF04B
:1021900039FF28440EF06EFC4FF4007200212046F7
:1021A0000DF061FA204609F019FD21463B480EF07A
:1021B000E7FBFFF739FD8022002120460DF053FA9E
:1021C000204603F01DFC2278FF2A04D02146344823
:1021D0000EF0D6FB29E0FFF7CDFD02F0AFFC092899
:1021E0001DD130480EF03EFC21462F480EF04EFD2A
:1021F00021462E480EF0C4FB2D480EF033FC002380
:1022000003A92C4803930EF041FD9DF80C30592B87
:1022100003D1204603F0D2FB07E0274803E027481C
:102220000EF020FC26480EF01DFC4FF208031D683E
:102230004FF20C031C684FF210031E684FF47043FA
:102240001A684FF20403AD0A1968A40A1D480EF07B
:1022500097FB2A4621461C480EF092FB31461B484C
:102260000EF08EFBFFF7E0FC012005F0D9FF1848C7
:102270000EF0F8FBFFF7D8FC0DF5057DF0BD00BFB3
:10228000676902008169020054C307209A6902004D
:10229000D2670200D2610200A06902008E790200BA
:1022A000D4690200F0690200126A0200176A020093
:1022B000326A0200756A0200796A0200916A0200BD
:1022C000BF6A0200F16A02001D6B02004A6B020045
:1022D000676B0200012070470120704701207047A2
:1022E00010B5044C23681BB90120FDF7C9FF20601D
:1022F000206810BD54C307200120704738B504463C
:102300000F4B00250360636DE06DAB4205D950F8BB
:102310002500FDF7B7FF0135F5E708B1FDF7B4FF7C
:102320000025A36B206CAB4205D950F82500FDF7C2
:10233000A9FF0135F5E708B1FDF7A6FF204638BD36
:10234000A06B020010B50446FFF7D8FF2046FDF74A
:1023500099FF204610BD2DE9F04104460E46C068A5
:1023600089000EF0E9FBA568E060AF004FF00008BF
:10237000AE420DD90C20FDF783FFE368C0F8008062
:10238000C0F8048080F808800135D8510437EFE7A1
:102390006660BDE8F081FFFFF7B5044600250B46F7
:1023A0004FF480520095254906F0AEFA244B0426DE
:1023B00023606663A563E5632564022104F13400AC
:1023C000FFF7C9FF26656565A565E56528466021B7
:1023D0000EF0B2FBA56DE065AE00172D0CD81020F5
:1023E000FDF74EFF0746102200210DF03CF9E36D8A
:1023F00001359F510436F0E718236365012384F803
:102400007030104E0023A4F87430A4F87630A3671F
:10241000002200230027C4E92023C4E9226709F031
:10242000C7FB4FF47A7200230CF0F4FC8019794159
:10243000C4E92001204603B0F0BD00BFB86B020024
:10244000A06B0200C0D401002DE9F0410F7A1446C0
:102450004D680E688FB1082A23D1284606F0A1FAEC
:1024600000281CDD4FF0FF321349304607F0D2FB45
:102470000121284606F094FB08E00A2A19D00D2A0B
:1024800012D02146284606F0ACFC97B133682146AD
:102490003046BDE8F0415B684FF0FF321847072433
:1024A000F4E70A2A02D1F1E7BDE8F0810D2AEDD068
:1024B000E7E7BDE8F08100BFC16B0200F8B5044654
:1024C000142015460F46FDF7DBFE8021064606F078
:1024D00038FCA36BE26B9A4206D3616B591803D2A6
:1024E00004F13400FFF737FFE36B226C591C52F8FC
:1024F0002330E1631F605E601D72F8BD2DE9FF4768
:10250000CF6B06460D4601AC3FB94FF47A7008F028
:1025100085FD01976760A76047E00B6C0DF110081F
:102520001B6893E8070084E80700002308F80D3DC6
:1025300008F03CFC81460027EB6B9F4263D22B6C7A
:102540004FEA870A53F827301868037C002B34D0F1
:10255000036800221B684146984770B3EB6B9F42AB
:102560002DD22B6C53F80A3093E8070084E807005B
:102570009DF8032021462846FFF766FF09F018FB67
:102580004FF47A7200230CF045FCD5E92223801821
:102590005941C5E92001029806F003FA074602985E
:1025A00006F002FA013887420CDB94E8070086E85F
:1025B0000700304604B0BDE8F0870137BCE705F1FD
:1025C0004403D1E7D5E92223134324D009F0F0FADC
:1025D0004FF47A7200230CF01DFCD5E920239942B8
:1025E00008BF904217D309F0E3FA4FF47A72002340
:1025F0000CF010FCD5E92223801859410023C5E9CD
:1026000020010193D1E708F0D1FB8145C3D102201D
:1026100008F004FDBFE79DF803300A2B88D1C4E71A
:10262000F0B5054685B020480EF0AAF9294601A864
:10263000FFF764FF019C1CB91C480EF013FA30E050
:10264000029E304606F0ADF900282ADD09F0B0FA06
:102650000746F8B1B5F8743005F150000133A5F81C
:1026600074302246314605F0F7FB114B00251868FF
:10267000009023681DF805105B684FF0FF3220467C
:1026800001359847042DF4D109F092FAC11B09488D
:102690000EF076F9304606F089F9236820469B68EB
:1026A0009847012005B0F0BDC46B020039610200FB
:1026B000946B0200CA6B020038B5064C236833B92C
:1026C0002C20FDF7DDFD054607F0DAF925602068CE
:1026D00038BD00BF24C3072010B50446FFF7ECFF48
:1026E00003682146BDE810405B684FF0FF32184791
:1026F00013B5002302AC04F8013DFFF7DDFF0368CA
:102700004FF0FF321B68214698479DF8070002B042
:1027100010BDFFFF2DE9F04100F150048AB0002503
:102720000646009520465B4B5B4A5C4905F0B4FACF
:10273000009520465A4B5B4A5B4905F0ADFA00957F
:1027400020465A4B5A4A5B4905F0A6FA00952046A6
:10275000594B5A4A5A4905F09FFA00952046594B61
:10276000594A5A4905F098FA00952046584B594A5B
:10277000594905F091FA00952046584B584A594955
:1027800005F08AFA00952046574B584A584905F0FB
:1027900083FA00952046574B574A584905F07CFA72
:1027A00000952046564B574A574905F075FA009553
:1027B0002046564B564A574905F06EFA009520467A
:1027C000554B564A564905F067FA00952046554B39
:1027D000554A564905F060FA00952046544B554A33
:1027E000554905F059FA00952046544B544A55492D
:1027F00005F052FA00952046534B544A544905F0CF
:102800004BFA00952046534B534A544905F044FA7D
:1028100000952046524B534A534905F03DFA009526
:102820002046524B524A534905F036FA0095524B16
:10283000524A5349204605F02FFAFFF73DFF4FF467
:10284000807320224FF41641054607F0F9F88046C0
:1028500001272F744B48FDF78BFD4B48FDF782FD98
:102860003A4629463046FFF729FE082203A905A863
:1028700006F070F805A8454906F0DEFA2A4605A9D3
:10288000204605F0E9FA05A806F079F840460AB0B6
:10289000BDE8F081E06B0200226C02003905010006
:1028A000176C0200276C0200210601002F6C020049
:1028B0003D6C0200A10F0100446C0200856C020017
:1028C000450601008A6C0200E66C0200190901004D
:1028D000EA6C0200786D0200990801002C6D02007C
:1028E000776D0200190D01007B6D0200A96D0200D9
:1028F0001D0A0100AC6D0200D16D0200950B0100B4
:10290000D76D0200046E02000D0C0100076E02007C
:1029100029860200690C01002C6E02004F6E020035
:10292000D10B0100526E0200256F0200451101001B
:10293000296F02006C6F0200590E0100746F0200D3
:10294000876F0200190F01008E6F02008D70020068
:102950000907010091700200B9700200490F0100DF
:10296000BF700200256802005D170100E9700200D7
:10297000DD71020091130100A67102008B5E02005E
:10298000DD120100F1260100D926010015650200C3
:1029900007B500238DF807308DF806308DF8053027
:1029A0008DF804308DF803308DF802308DF8013049
:1029B000064B02AA1B78012102F8083D4FF4CA70A9
:1029C00000F08CFC03B05DF804FB00BF60C307207F
:1029D000D0B50022104B06460F460BF059FD0BF008
:1029E000DDFE0446642060430BF0C2FB02460B464A
:1029F000304639460BF06EFA0022084B0BF048FDCA
:102A0000064620460F460BF0B3FB02460B46304607
:102A100039460BF061FAD0BD0000594000004E402D
:102A200008B503490EF00EFBB0FA80F0400908BD6E
:102A3000FF710200FFFFFFFF2DE9F84324A3D3E954
:102A40000023DFF89480DFF89490D8E900673046DF
:102A5000D9E9004539460BF03FFA02460B462046BD
:102A600029460BF067FE88B319A3D3E9002330464B
:102A700039460BF02FFA02460B46204629460BF04A
:102A800063FE18B312A3D3E90023D8E90245D9E9BC
:102A90000267204629460BF01FFA02460B463046D5
:102AA00039460BF047FE88B109A3D3E9002320463D
:102AB00029460BF00FFA02460B46304639464FF0D6
:102AC00001040BF041FE00B90446E0B2BDE8F88312
:102AD000691D554D1075FF3E10C5072068C30720BE
:102AE0002DE9F047DFF8AC80294AD8F80030DFF84C
:102AF000A8A0013BDBB202EB0319D9E9006722A3CE
:102B0000D3E900233046DAE9004539460BF0E4F911
:102B100002460B46204629460BF00CFE88B31AA34A
:102B2000D3E90023304639460BF0D4F902460B4670
:102B3000204629460BF008FE18B313A3D3E900235F
:102B4000D9E90267DAE90245304639460BF0C4F9A3
:102B500002460B46204629460BF0ECFD88B10AA33D
:102B6000D3E90023304639460BF0B4F902460B4650
:102B7000204629460BF0E8FD18B10023C8F80030C4
:102B80000120BDE8F08700BF691D554D1075FF3E5F
:102B9000C0C3072078C3072068C3072008B5064BC9
:102BA0001868FFF73DFF28B1044B1878022894BF3E
:102BB0000020012008BD00BF04C5072062C3072014
:102BC0002DE9F743002800F08180534BDFF8609136
:102BD000524C4FF00008D3E90001D3E902674246A6
:102BE0004B46C4E90001C4E902670BF099FD08B146
:102BF000C4E90089D4E90001DFF824914FF000080E
:102C000042464B460BF0AAFD10B1444BC3E9008984
:102C1000D4E900010022424B0BF05EF93CA3D3E95A
:102C200000230BF035FC00223E4B0BF055F90BF066
:102C3000DDFD20F04040030ADFF8F4908DF801300C
:102C40004FF00008030C8DF800008DF80230050EDF
:102C500042464B46304639460BF062FD10B12F4BD1
:102C6000C3E90289D4E902012D4F002632463B46D2
:102C70000BF074FD10B1294BC3E90267D4E90201DE
:102C80000022274B0BF028F921A3D3E900230BF0F6
:102C9000FFFB0022234B0BF01FF90BF0A7FD20F0E8
:102CA00040439A088DF804209A0A45EA80108DF86E
:102CB00005209A0C9B0E8DF803008DF806208DF8E8
:102CC00007306A4608214FF4C87018E0164B8DF89B
:102CD00007001A788DF8060060F300021A706A4641
:102CE0008DF805008DF804008DF803008DF80200C2
:102CF0008DF801008DF8000001214FF4CB7000F039
:102D0000EDFA0A4B00221A6003B0BDE8F08300BF61
:102D10008DEDB5A0F7C6B03E68C3072088C3072075
:102D2000008066400000E03FA4C30720A0C3072046
:102D3000008066C0044A054B10B11B68137001E0A7
:102D400010701860FFF724BE60C3072078C3072007
:102D50002DE9FF4104AC04E90F009DF80220504822
:102D6000C2F30302027101999DF80840B1F5FA7FA0
:102D7000D3B201604B4F0BD002D851297BD086E0F3
:102D800040F2F712914210D0B1F5FC7F5ED07EE0A8
:102D9000FFF704FF444B08B101221A6018680030A5
:102DA00018BF0120FFF70CFF71E0082B6FD19DF8D1
:102DB0000A209DF80B809DF80930120442EA032393
:102DC0004FEA0860234300F07C5018430BF0C0F931
:102DD00031A3D3E900230BF031FA0022334B0BF07F
:102DE00079F804460D469DF80C309DF80D009B00C7
:102DF00043EA981343EA80239DF80E002C4E43EAE1
:102E000080439DF80F00C6E90045800600F0705031
:102E100018430BF09DF920A3D3E900230BF00EFA21
:102E20000022224B0BF056F83369C6E902016FF31A
:102E30005F0333611F4E204A336802EB03120133F4
:102E4000C2E90045C2E90201336020E0012B1ED136
:102E50001A4A516814706FF35F015160154A126885
:102E60009442174A08BF13601068003018BF012051
:102E7000FFF760FF0BE0012B09D112493A700B7884
:102E800064F300030B704B686FF35F034B6038789B
:102E900004B0BDE8F08100BF8DEDB5A0F7C6B03E2F
:102EA0007CC3072000C50720A0C307200080664020
:102EB00020C5072078C30720C0C30720B4C307205C
:102EC00098C30720A8C3072008B50A4801234C224D
:102ED0004FF4E131006806F007FEFEF71DFF042104
:102EE00001F0F8FDFEF718FFBDE80840022101F0EF
:102EF000F1BD00BF64C307202DE9F3414D4C4E489E
:102F00002C23C8222146ADF804300068002306F0C7
:102F1000A3FE4A4894F82E30037094F82F30484CA2
:102F200043700A2383700CF00FF9464B2268187027
:102F30001F469AB90820FDF7A3F9434D06462B68B2
:102F40003BB91C20FDF79CF9804606F005FBC5F84F
:102F500000802B6826603360402333712068397805
:102F600001F056FD01A933480EF03CFF374B0446F3
:102F70001860FFF713FE002851D0FEF7CDFE0025A4
:102F8000012101F093FD2F4674B1314900200EF06C
:102F900029FF0135022D044601D12746F4E7042D0F
:102FA000F2D12C4B01221A702A4E3378012B12D108
:102FB00038460CF0C6F8FFF70BFD274DC5E90001B8
:102FC00020460CF0BEF8FFF703FD002301F100419D
:102FD000A860E9603370214B1B78002B27D0204B71
:102FE0001C781D464CB91F4B1F49D3E90267D3E932
:102FF0000023C1E90267C1E90023FFF71DFDB0B15D
:10300000184B0134E4B22C7003EB0414164BD4E9D2
:10301000020130CCC3E90201C3E9004507E0FEF735
:103020007BFE012101F056FD10480DF01BFD02B0A2
:10303000BDE8F08138C5072064C3072008C5072014
:1030400050C3072062C3072020C3072004C5072000
:10305000E67A02009CC3072068C3072000C507204A
:1030600061C30720C0C3072010C5072006720200F5
:103070002DE9F04F524E85B0FFF73EFFD6E9000133
:103080000BF0D4FB0BF086F84BA3D3E900230BF035
:10309000D5F80BF0CBFB0BF07DF88046894609F0A4
:1030A00017FB04460D46D6E902010BF0BFFB0BF0FF
:1030B00071F841A3D3E900230BF0C0F80BF0B6FB85
:1030C000404E0746D6E902010BF0B0FB0BF062F868
:1030D00039A3D3E900230BF0B1F80BF0A7FB0146AD
:1030E00038460BF0F7FB0BF055F8CDE9000109F07D
:1030F00037FBCDE90201D6E900010BF097FB0BF09D
:1031000049F82DA3D3E900230BF098F80BF08EFBC0
:103110000BF040F882468B4609F0DAFA06460F4675
:103120004046494609F01CFB8046894650465946B0
:1031300009F016FB82468B46DDE9000109F0C8FA6A
:103140004246CDE900014B46304639460BF076F851
:10315000524606460F465B46204629460BF06EF85F
:10316000DDE900230BF06AF802460B46304639468B
:103170000AF0B0FE0BF05AFB0BF00CF8DDE902236D
:1031800006460F46204629460BF058F80BF04EFB3A
:103190000BF000F832463B4609F02AFB0BF046FBE9
:1031A0000AF0F8FF04A3D3E900230BF071F90BF048
:1031B0003DFB05B0BDE8F08F399D52A246DF913F3F
:1031C00010C5072068C3072038B5074C236833B9FA
:1031D0002C20FDF755F8054606F0A6FC2560226870
:1031E000024B1A6038BD00BF5CC3072064C30720D0
:1031F000012803460ED007D3022810D10948012325
:103200000522006806F0C4BC0748012300220068BC
:1032100006F016BC05480022006806F065BC0020D8
:10322000704700BF0CC6072004C6072008C6072049
:1032300030B52C2385B005460C48ADF8043000238A
:103240000293ADF80C3006220A2302A9006806F0AA
:1032500003FD044638B101A902A80EF0C3FD10B168
:103260000BF072FF2860204605B030BD0CC6072069
:1032700038B5144C236833B92C20FDF701F8054606
:1032800006F0FEFB256022680F4B104C1A60236885
:1032900033B92C20FCF7F4FF054606F045FC256009
:1032A00022680B4B0B4C1A60236833B92C20FCF7B7
:1032B000E7FF054606F08CFC25602268064B1A6085
:1032C00038BD00BF24C3072004C607205CC3072005
:1032D00008C6072000C607200CC607201FB50B46EE
:1032E00011469DF80220019063F303028DF802203D
:1032F00002A81A460CF091F900226946104606F021
:1033000009F805B05DF804FB01207047704770476D
:1033100013B54FF4E1310220FFF76AFF28B9FEF739
:10332000FBFC0122032101F0E9FBFFF7CDFD0024A6
:1033300014231A46642101940094204605F0CEFE21
:1033400006F046F8204606F037F8024B01201C70C4
:1033500002B010BDB0C3072008B5002005F0CCFFB7
:1033600050B1FEF7D9FC0122032101F0C7FBBDE8F3
:103370000840002006F020B808BDFFFF7FB50023FD
:10338000019300286FD0FFF773FE064601A8FFF7F0
:103390004FFF374B10B1019A1A6001E01B6801938F
:1033A000344CBDF80450304625800BF0EDFCB5F5EB
:1033B000B47F84BF4FF4B4722280228860608DF89D
:1033C0000820B4304FEA12228DF80920BEBF294AE6
:1033D0006FF0B30151606268A368B42AC2BF254A86
:1033E000B4215160A2888DF80C308DF80A20120AA1
:1033F0008DF80B201A0A8DF80D201A0C8DF80E206E
:103400001B0E02AA082140F291108DF80F30FFF731
:1034100065FFFFF711FB20B1FEF77EFC022101F0F2
:1034200072FBFFF75DFB00B3FEF776FC042101F0B1
:103430006AFB114B0121197002AA002340F295107A
:103440008DF80F308DF80E308DF80D308DF80C3072
:103450008DF80B308DF80A308DF809308DF8081092
:10346000FFF73CFF01E0FFF747FD04B070BD00BF70
:1034700020C6072014C6072010C6072010B5094C27
:1034800000222146104605F0F1FE48B1206861682F
:10349000A268E368FFF75CFCBDE81040FFF76EBF71
:1034A00010BD00BF24C607207047FFF731BFFFF7EC
:1034B0002BBF10B50446FCF7E5FE204610BDFFFF0C
:1034C00070B50B4E05010B4B741953F82010201DDD
:1034D00007F078FDE368A0689847A3687059013346
:1034E000A36000231A46BDE87040194607F0A8B84B
:1034F00034C60720C472020008B50020FFF7E0FFC1
:10350000FBE708B50120FFF7DBFFFBE708B502206A
:10351000FFF7D6FFFBE708B50320FFF7D1FFFBE776
:10352000F7B507460D462D4A00240D2312682C4995
:10353000009405F0E9F92B4B87F831503B602A4D98
:103540002A4B0322EB602A4B2146EB61294B0120D9
:10355000EB62294BEB6307F051F803222860214608
:10356000012007F04BF8032228612146012007F0D3
:1035700045F8224B28621E680523C6F38F06009388
:10358000324623461E4901941E4807F0C9FA062315
:103590000093324623461C4901941C4807F0C0FAA8
:1035A000072300930194234632461949194807F02E
:1035B000B7FA97F8313073B103222146012007F0A2
:1035C0001DF80823286332460093019423461249CC
:1035D000124807F0A5FA384603B0F0BD1072020099
:1035E00028720200DC72020034C607205933010041
:1035F0000D3301007D3401000F330100147202000D
:103600002F720200F9340100337202000335010009
:10361000387202000D3501003E72020017350100BC
:1036200038B517480C46415C00230131C9B29142BC
:1036300002D00155184638BD124D035520012858B7
:103640001A46194607F002F90546B0B90E4B53F871
:10365000244020460DF006FA20460DF005FD2B46CD
:1036600002462146094801F06FFB094A094B9A645A
:103670004FF08043AA221A721D70012038BD00BF8E
:1036800074C6072034C60720187202004572020073
:10369000EFBEADDE00400240044608B5012007F051
:1036A000BDFC94F8313023B1012203212046FFF7FD
:1036B000B7FF0A2202212046FFF7B2FF0028EDD013
:1036C0000A2201212046FFF7ABFF0028E6D00A229C
:1036D00000212046FFF7A4FFE0E710B59020FCF79B
:1036E000CFFD04460321FEF757FE204605F0DEF825
:1036F0003420FCF7C5FD04460021FFF711FF2046EA
:1037000005F0D4F80021084605F0DEF84FF0FF3050
:1037100010BD10B54FF6FF74242303FB010188424E
:1037200009D043782BB1038C1344A34228BF23460E
:1037300003842430F3E710BD37B5002302A840F816
:10374000043D0C4B04215B6898470B4B019A1C68A5
:103750000546141B1A60042122460848FFF7D9FFCA
:10376000224602210648FFF7D4FF281C18BF01207B
:1037700003B030BD78C6072048C707208CC6072095
:1037800065C7072008B50B4B197803788B420A4BA5
:103790000BBF1A889A880132013214BF9A801A80AE
:1037A000064B8170DB6820219847003018BF01204C
:1037B00008BD00BF05C007201DC7072078C6072029
:1037C0000A4B02781B789A42094B0BBFDA881A8998
:1037D000013201320CBFDA801A810379C3F3C202CD
:1037E000073262F3C5030371FFF7CCBF05C00720A2
:1037F0001DC7072010B50749002311F823409A0080
:10380000844202D10348104410BD0133042BF4D18B
:10381000002010BD37C7072070B1C3780133DBB279
:10382000FF2BC37008D105480023C118CA780433A0
:103830005208102BCA70F8D1704700BF37C7072055
:10384000242202FB01010346024630B5914206D014
:103850001446243212F8235C002DF7D10FE0044601
:10386000002599420BD01A79C2F3C2001A8C42EAA1
:103870000042AA4284BF1C4615462433F1E7204685
:1038800030BDFFFF38B50546C90001F10804FFF758
:1038900053FF1C4B2A781B789A4204D102211A4804
:1038A000FFF7CEFF0CE004211848FFF7C9FFEB78C3
:1038B00033B990F82330042443F0800380F8233098
:1038C000002380F8203080F8213002462B4690F803
:1038D000231080F8224021F07F01C4F306240C431A
:1038E00080F8234005F1200153F8044B8B4242F845
:1038F000044BF9D1064A0379127862F3C5030371C8
:1039000038BD00BF05C0072065C707208CC607204B
:1039100004C0072008B5FFF76DFF0346D8B9FFF7CD
:1039200069FF0346B8B90D4AD378D179D07A8B4272
:1039300096BF1946131D1346814294BF0846084B93
:10394000D17B084A814238BF1346074900221A60DA
:10395000CA7A0132CA72184608BD00BF37C70720AD
:103960003FC7072043C707201DC707202DE9F84F91
:1039700005460C464FF0240909FB0219DFF868A13F
:10398000DFF868B14E1C4FF000084C4500F09A80FB
:1039900094F823301A0624D5B5B12A7861788A4282
:1039A00005D16F7816F8010C874200F08D80E87819
:1039B00050B16878884207D116F8011C914203D1B2
:1039C000A979A27991427FD094F82220218C03F02A
:1039D0007F0342EA0323994271DB2046FFF7D2FEC0
:1039E00072E06278002A6AD06DB3297901F0C001D3
:1039F000C02917D116F8010C6978884202D12878BD
:103A0000904261D0E778A87887420CD191420AD1E0
:103A100016F8010C2978884205D1A079A979884245
:103A200001D151E079B1A878E17888420BD1697869
:103A3000914208D116F8010C2978884203D1A07967
:103A4000A979884246D094F82210208C03F07F0395
:103A500041EA0323984232DB237984F82080C3F3C0
:103A6000C201CFB284F821801FB12046FFF7A8FE23
:103A700025E003F0C003C02B19D016F8010C9AF80A
:103A80000030984213D1E3789A4210D07BB1637929
:103A9000032262F307136371E1702046FFF790FE83
:103AA00023799BF8002062F3C503237100E001270E
:103AB0006078FFF79FFE08B1C0F8008027B9243472
:103AC000243662E7BDE8F88F2422002120460BF05F
:103AD000CAFDF4E7237984F820806FF3C50384F8E6
:103AE00021802371EBE700BF05C0072004C0072039
:103AF000431EDBB2FD2B9DBF024B1870012000203E
:103B0000704700BF05C00720014B1878704700BF01
:103B100005C0072007289CBF014B1870704700BFE5
:103B200004C007202DE9F743044691461E469DF840
:103B300028500F46002966D0364B93F80080414547
:103B400063D00F2E61D8002861D0202200210BF015
:103B50008AFDFF2F237914BF09F00302002262F3CC
:103B60008713032262F302032B4A6770127884F8EA
:103B7000008062F3C503294A2371137884F8028018
:103B80000133DBB21370A3710BAB019315B94FF086
:103B900001081BE004F10809019AE0791346526814
:103BA00053F8081B00EB02085FFA88F8013DB8F1F2
:103BB000180F0193EDB207D848440BF02EFD84F89E
:103BC0000780002DE8D1E2E74FF00008DFF85090C1
:103BD0000123384689F80030FFF70CFE0546FFF751
:103BE0001BFE002389F80030637925B966F30713BB
:103BF0006371E57005E0AA7862F3071363716B786F
:103C0000E370404603E0084601E00020FFE703B010
:103C1000BDE8F08305C0072004C007201CC70720AB
:103C200029C70720124B012270B51A7004461E46A0
:103C300008B9002518E0FFF7A5FD05460028F8D0D3
:103C4000237903F0C003402B06D0C02B0AD1E378C0
:103C500053B162789A4207D0617920460909FFF78B
:103C600011FE01E0802BF7D000233370284670BD91
:103C700029C7072082B02DE9F0439146421ED2B2F7
:103C80008DB0FD2A05460E4615939DF8688001D932
:103C9000002057E0002BFBD0179F002FF8D0199B76
:103CA000002BF5D0189B002BF2D0169B002BEFD0E9
:103CB0004822002126480BF0D6FC902200212548FE
:103CC0000BF0D1FC1022002123480BF0CCFC234B3D
:103CD00000241C605C609C60214B1C605C609C60EC
:103CE000204B1D70204B214D1E7015AE0FCE0FC501
:103CF0003368182221461E482B600BF0B4FC49465D
:103D000017221B480DF0F6F921462046B847002837
:103D1000BED0B8F1000F02D1FFF70EFD12E006236E
:103D20000293144B2246019301230093FF2104A820
:103D3000FFF7F8FE0028ABD004A8FFF773FF0028B8
:103D4000A6D0E9E70DB0BDE8F04302B0704700BF70
:103D500065C707208CC6072037C707202BC7072059
:103D60001DC7072005C007202AC7072078C60720DF
:103D70004CC70720F472020030B5182B8DB016D84E
:103D8000B2FA82F41D1C18BF01256409AC420ED0A2
:103D90000293019200950A469DF84030014604A81E
:103DA000FFF7C0FE18B104A8FFF73CFF00E00020B9
:103DB0000DB030BD13B5537914781B09009302463A
:103DC0000B4620460321FFF7D7FF02B010BDFFFFCF
:103DD00000231A4630B5084C14F82350990035B129
:103DE000904202D10448084430BD0132D2B20133BE
:103DF000042BF1D1002030BD37C70720002318461F
:103E0000044A12F8231009B10130C0B20133042B67
:103E1000F7D1704737C707202DE9F04188B020223D
:103E2000002168460BF01FFCA14B1B7803F0FF0438
:103E3000002B40F039819F4F20213B69684698470D
:103E4000002800F084809C4D6B8801336B80FFF765
:103E5000D5FF9DF80420A87202F00703032B04D0BD
:103E6000964A137843F0010309E0954B1D789DF8BD
:103E70000230AB4205D1914A137843F0020313702C
:103E8000E4E0C2F3C2029DF800E09DF806008D490F
:103E9000D6B204EB440313F801C0F4450BD10B4434
:103EA00093F801C0844506D1997801248E1B18BF70
:103EB00001269A7018E00134042CEAD182490B687B
:103EC0009A70804A587002F10900834283F800E03A
:103ED00040F0C9800A609DF800009DF802308342DE
:103EE00040F0C480002426469DF80200FFF712FD32
:103EF0009DF8022002709DF802204270002282701C
:103F0000FFF78AFC04B116B39DF80030AB4200F015
:103F10009C809DF80160FF2E1BD13B6820216846E4
:103F2000984720B9654A137843F0040313709DF84D
:103F3000053003F00F02511C61F303038DF80530C7
:103F4000C3F303139A4202DA6846FFF71BFC00240E
:103F50007CE0B5422BD164B99DF807304BB13B688A
:103F600020216846984720B9544A137843F0040347
:103F700013709DF8043003F0C003402B12D19DF85C
:103F800007306A4613B91821504808E00C214A4806
:103F9000FFF710FF002858D100216A460846FFF7B6
:103FA00009FF52E09DF80330002B4ED1F4E7484B57
:103FB0001B78002BCBD09DF8054004F00F074FEA8B
:103FC00014184745C3DA013767F303043046FFF797
:103FD00011FC8DF805409DF80340A54221D19DF8C4
:103FE000041001F0C001402906D0A1F180035A421B
:103FF0005A41144610B90CE0012260B1C02943783F
:1040000005D19E4203D0003318BF012304E00023F2
:1040100002E0C0290ED10346134303F0010420B986
:1040200008E094B908B941460CE043788DF80330B4
:10403000857802E000258DF803506846FFF7A2FB63
:104040001CB129466846FFF71DFC6C46FFF774FB60
:10405000204604221F49FFF789FC02221E49204600
:10406000FFF784FC20E003330B6034E785423FF424
:1040700039AFFFF74FFC0446FFF7CEFB23783BB187
:104080009DF80530A27803F00F0393423FF72AAF63
:104090009DF8003023709DF8023063709DF8053064
:1040A000C3F30303A3701DE708B0BDE8F08100BFB0
:1040B00029C7072078C607201DC7072064C7072027
:1040C00005C007202BC7072000C007204CC70720CA
:1040D0002AC707208CC6072065C70720002318467B
:1040E000094AD118497809B10130C0B22433902B64
:1040F000F7D1064B5A780AB10130C0B293F8253097
:104100000BB10130C0B270478CC6072065C70720CD
:1041100008B5FFF76FFB064B28B18278187802FBD1
:104120000000C00008BD18781823584308BD00BF20
:1041300004C0072003490B6803604B6843608B6829
:10414000836070471DC7072070B53E4C4FF4803523
:10415000E5613D4CA0602046C5683B4CED06FBD4B4
:10416000A0680D46C0B20BB923465FE02346002A83
:1041700063D0072A0E782DDD9E604E78083A9E6047
:104180008E789E60CE789E600E799E604E799E609D
:104190008E799E6001F10806C9799960996949078D
:1041A000FCD5A1682970A1686970A168A970A1688F
:1041B000E970D968C906FCD4A168083505F8041C63
:1041C000A16805F8031CA16805F8021CA16805F8A0
:1041D000011C1AE0032A1ADD9E604E78043A9E60A4
:1041E0008E789E600E1DC9789960D968C906FCD486
:1041F000A168043505F8041CA16805F8031CA16832
:1042000005F8021CA16805F8011C3146AFE7013131
:104210009E60013ADE68F606FCD4A668013505F812
:10422000016CA4E7E668F606FCD4A6686E1AB242F2
:1042300003DD15F8016B9E60F4E7024B4FF480320A
:104240009A6170BD00C009200080084007B50023B6
:1042500002A901F8013D01231A4600F01F00FFF7F3
:1042600073FF9DF8070003B05DF804FB13B502ACC3
:1042700004F8011D00F01F0000230122214640F038
:104280002000FFF761FF02B010BD08B51720FFF74F
:10429000DDFFC0F3001008BD70210720FFF7E6BF67
:1042A0000A4600230146A020FFF74EBF08B50020B4
:1042B000FFF7CCFFBDE8084000F0FE010020FFF74B
:1042C000D5BFFFFF024B4FF08072DA61704700BF2D
:1042D00020C0092008B50020FFF7B8FF40F0010119
:1042E000C9B20020FFF7C2FF024B4FF080729A6103
:1042F00008BD00BF20C0092020210720FFF7B6BF5E
:1043000000231A461946E120FFF71EBF37B50446C1
:104310000D46FFF7F5FF20462946FFF7C1FF0D4B7D
:104320004FF080721C469A610022ADF80620BDF85D
:10433000063001339BB2ADF8063033B94FF08073CD
:10434000E361FFF7DDFF03B030BDFFF79EFF0028FC
:10435000EDD0F3E720C0092008B51720FFF776FF5E
:1043600000F0010080F0010008BD40210720FFF7A8
:104370007DBF08B50A46012301466120FFF7E4FE30
:10438000C0F3420008BD00231A461946E220FFF799
:10439000DBBE70B5064600200D461446FFF756FFFB
:1043A00016B100F0BF0002E040F04000C0B215B10D
:1043B00000F0DF0101E040F0200114B101F0EF0155
:1043C00001E041F010010020BDE87040FFF74EBF52
:1043D00010B504460020FFF739FF14B900F0F701CB
:1043E0000DE0012C04D100F0FB0141F0080106E0D2
:1043F000022C14BF40F0080140F00C01C9B20020AB
:10440000BDE81040FFF732BF08B50020FFF71EFFE0
:10441000BDE8084040F00201C9B20020FFF726BF06
:1044200008B50020FFF712FFBDE8084000F0FD01CD
:104430000020FFF71BBF40F6DD13984206D840F678
:104440006213B0F5166F38BF184600E01846A0F5A5
:104450001661C9B20520FFF709BF10B50446062052
:10446000FFF7F4FEFA2C00F0D70102D141F0200151
:1044700004E0B4F5FA6F08BF41F008010620BDE87A
:104480001040FFF7F3BE10B504460620FFF7DEFE2E
:10449000032C28BF032420F0060040EA4401C9B2DF
:1044A0000620BDE81040FFF7E1BEF9284FF0FA03FF
:1044B00005D9B0F57A6F88BF4FF47A6000E01846EE
:1044C000B0FBF3F00F2900F1FF30C0B228BF0F217D
:1044D00041EA0011C9B20420FFF7C8BE1130C0B2D2
:1044E000162804D8202928BF2021FFF7BFBE704717
:1044F000032804D0042814BF0321022100E0012175
:104500000320FFF7B3BE0A46002301463020FFF721
:104510001BBE0A46002301462A20FFF715BEFFFFF7
:1045200073B50E4615460446FFF72DFFFFF7E8FE6C
:104530002B4B4FF08072DA61FFF772FF00221146B9
:104540000120FFF726FFFFF7A7FE0220FFF740FF3D
:104550003046FFF770FF2846FFF77FFF0320FFF785
:1045600092FF03210220FFF781FE00210120FFF7C7
:104570007DFE03214FF4FA70FFF797FF21460020DC
:10458000FFF7ACFF00211220FFF770FE002113207F
:10459000FFF76CFE00211420FFF768FE00211520B4
:1045A000FFF764FE00211620FFF760FE0D4B186830
:1045B0001B79009005208DF80430FFF799FF6846BD
:1045C0000521FFF7A0FF05216846FFF7A2FFFFF7CF
:1045D0001BFF4FF4FA6004F031FC02B070BD00BF65
:1045E00020C00920FB72020070B5174E326822B954
:1045F0002021032006F002F83060144D2A6822B909
:104600002021012005F0FAFF2860114C216821B912
:104610000322012005F0F2FF20604FF4FA6240F619
:10462000C3112020FFF77CFFFFF754FE1620094A34
:10463000012104F045FF306828B1286818B12068CE
:10464000003018BF012070BDB4C70720B0C70720D5
:10465000B8C707200147010070B50379014603F090
:10466000C003C02B0CBF0E4B0E4B88B01D6800233F
:1046700006461A46284605F0E3FF044660B903469D
:1046800002466946284606F0E1F8234622463146AE
:10469000284605F0D5FF0446204608B070BD00BF8F
:1046A000B0C70720B4C7072038B504460D46FFF74A
:1046B0002BFA237883420AD0E37843B90CF002FA4C
:1046C000BD2300F0030000FB033004F0B7FBFFF74D
:1046D000F9FDFFF7EBFDA9B22046FFF717FEFFF744
:1046E0000BFEFFF7F7FD06F0B5FE022804D1034BE1
:1046F0000021186806F078F8012038BDB8C70720F7
:1047000007B5002302A941F8043D084B186806F0DC
:104710006BF8019B3BB1064B4FF080521A60BFF320
:104720004F8FBFF36F8F03B05DF804FBB8C707204E
:1047300004ED00E038B504460D46FFF70DFE48B124
:10474000A9B22046FFF715FEFFF706FE08B9FFF7EE
:104750000CFE012038BD2DE9704305460E46144677
:1047600006F078FE022807D122460023314628466B
:1047700006F06CF8C4B21DE007F01AFA4FF47A7232
:1047800000230AF047FB10EB040841F10009002365
:104790001A463146284606F059F8C4B254B907F013
:1047A00007FA4FF47A7200230AF034FB894508BFF8
:1047B0008045ECD22046BDE87083042938B5054613
:1047C00003D1041C18BF012400E0002407F0F0F915
:1047D0002CB14FF47A7200230AF01CFB28602046AB
:1047E00038BDFFFF00B50C4B8DB009930B4B0C4A45
:1047F0000B930C4B0A930CAB43F8102D0022049240
:104800000FCB8DE80F00084B084A01216A20FFF703
:1048100031FA0DB05DF804FBE945010035470100B0
:10482000BB470100A9460100594601000073020080
:10483000024B0A4601461868FFF78DBFB4C7072030
:10484000024B0A4601461868FFF785BFB0C707202C
:1048500008B506F0FFFD0F4B02285B6913D15A0221
:104860000DD5FFF73BFC00280B484FF0000314BFA9
:1048700001224FF0FF321946006805F0E7FFBDE85E
:104880000840FFF7C9BA5B02F9D5FFF727FC0028FB
:10489000F5D108BD00C00920B8C7072013460A4655
:1048A0000179006805F0DFBA1FB5002204AB047976
:1048B00023F8042D0222009200680A46214605F0E2
:1048C000BDFA9DF80C009DF80D3043EA002004B0BD
:1048D00010BD10B5044619222A21FFF7DFFF0D2273
:1048E0002179206805F0AEFAA0F12A035842584118
:1048F00010BDFFFF044A13881F2B9FBF581C108058
:10490000024A42F823107047C0C70720C4C70720D7
:10491000154AF0B513881646012B21D9134A0020F9
:104920001546013B984206DA516814680130091BAC
:1049300042F8041BF6E700210C466A684FF0010EAE
:1049400002EB52008AB2934208DD55F82270013121
:10495000B8423CBF0EFA02F21443F3E7044B1C606A
:1049600000233380F0BD00BFC0C70720C4C70720A5
:10497000BCC7072008B50121022007F0B3F8084B97
:1049800001209A6A22F007029A629A6A42F00602AD
:104990009A62044AD36843F03003D36008BD00BF75
:1049A0000080004000C0024008B5044B417101F096
:1049B0007F015A5C0321FFF771FF08BD05730200F8
:1049C00008B5044B817101F07F015A5C0221FFF7A9
:1049D00065FF08BD0573020038B50446017900681B
:1049E00005F04CFA054688B1002206212046FFF763
:1049F00055FF002207212046FFF750FF2E212046B9
:104A0000FFF7D2FF2E212046FFF7DAFF284638BDF8
:104A1000642370B5B1FBF3F404FB1311CCB20A218B
:104A2000B4FBF1F501FB15413031C9B20646FFF781
:104A3000C7FF092C88BF05F130013046BDE8704042
:104A400094BF2021C9B2FFF7AFBF01207047FFFF1D
:104A500038B50D46044606F02FFE05F00F0323700F
:104A6000114B15F0010F4FF0010214BFDA619A618A
:104A7000227812F0020F4FF0020214BFDA619A613D
:104A8000227812F0040F4FF0100214BFDA619A611D
:104A9000227812F0080F4FF4807214BFDA619A6125
:104AA000BDE8384006F018BE20C0092038B50D46D4
:104AB000044606F001FE691E012303FA01F1237882
:104AC00020461943C9B22170FFF7C2FFBDE8384044
:104AD00006F002BE38B50D46044606F0EDFD691E2F
:104AE000012303FA01F12378204623EA0101217012
:104AF000FFF7AEFFBDE8384006F0EEBD0AB1FFF7A4
:104B0000D5BFFFF7E7BF38B50D46044606F0D4FD24
:104B1000691E012303FA01F1237820465940C9B2E6
:104B20002170FFF795FFBDE8384006F0D5BD0120A4
:104B30007047022004F018BA01207047044B5B69EB
:104B4000180B00F00C00C3F341231843704700BF5B
:104B500020C0092010B5044681220121FFF79EFEE6
:104B600001222179206805F06DF910F0600F14BF63
:104B70000120002010BD38B500210446FFF794FE47
:104B8000812205B201212046FFF788FE102095FB07
:104B9000F0F009F055FF4FF0765109F0A5FFA1683C
:104BA00009F09AFE38BDFFFF08B5FFF7E4FF05499D
:104BB00009F09AFF04490AF04BF84FF0844109F0DC
:104BC0008BFE08BD000010410000A0402DE9F04F11
:104BD000ADF2546D0C4690460146012282A89946DA
:104BE00002F03EF8002867D121460A220DF22C403F
:104BF00002F036F8044620B182A802F09AFA204664
:104C00005AE06D46064607462860019006F0D0FF40
:104C10004FF47A7200230AF0FDF82B4683464FF4D6
:104C2000007202A982A802F0B5F88246E0B92A68AB
:104C3000D2B106F0BDFF4FF47A7200230AF0EAF811
:104C4000B0EB0B00074406F0B3FF4FF47A72002379
:104C50000AF0E0F801AB83462A6802A90DF22C4065
:104C600002F050F98246B0B1B8F1000F01D0C8F897
:104C70000070B9F1000F01D0C9F80060DDF8783696
:104C800003B11C6082A802F054FA0DF22C4002F02D
:104C900050FA504610E001992A689142E4D106F09A
:104CA00087FF00234FF47A720AF0B4F82B68B0EB58
:104CB0000B0006441C44A9E70DF2546DBDE8F08FCB
:104CC000F0B5ADF50B7D0E46174601461D46012297
:104CD000002301A8009301F0C3FF044670B91DB181
:104CE000294601A802F037FA6B463A46314601A838
:104CF00002F050F8044601A802F01BFA20460DF518
:104D00000B7DF0BDF0B5ADF50B7D0E4617460146A7
:104D10001D460A22002301A8009301F0A1FF0446CA
:104D200070B91DB1294601A802F015FA6B463A4642
:104D3000314601A802F0E6F8044601A802F0F9F9AC
:104D400020460DF50B7DF0BDF0B5ADF50B7D0E46A3
:104D5000174601461D461222002301A8009301F0C8
:104D60007FFF044680B90DB1294600E0049901A8EF
:104D700002F0F1F96B463A46314601A802F0C2F85A
:104D8000044601A802F0D5F920460DF50B7DF0BDD3
:104D90007F2810B516D931B1FF2812D80A4B8038B8
:104DA00033F8100010BD084A32F811408BB284422B
:104DB00003D001318029F7D10B4603F18000C0B246
:104DC00010BD002010BD00BF8673020006490023FD
:104DD00031F8132032B1824201D00133F8E7034A9F
:104DE00032F81300704700BF867402006676020036
:104DF00010B501200C4605F0A7FC2060003018BF5C
:104E0000012010BD0120704710B5044606F022FBBA
:104E100002280AD1002319464FF0FF32204605F040
:104E200015FD431E5842584110BD012010BD10B55C
:104E3000044606F00FFB022807D100232046BDE8F8
:104E400010401A46194605F0FBBB10BD10B50446CC
:104E500004F0B8FD24B1012C06D100F081F901E085
:104E600000F002FD044600E0042404F0C3FD2046E7
:104E700010BD28B1012801D00420704700F028BAE5
:104E80007047F8B507460C4615461E4604F09AFDD5
:104E90003FB1012F0CD132462946204600F020FABE
:104EA00004E032462946204600F02AFD044600E090
:104EB000042404F09FFD2046F8BDF8B507460C46D3
:104EC00015461E4604F07EFD3FB1012F0CD132463F
:104ED0002946204600F050FA04E032462946204692
:104EE00000F030FD044600E0042404F083FD204679
:104EF000F8BD70B506460C46154604F063FD36B1A4
:104F0000012E0AD12946204600F090FA03E02946F6
:104F1000204600F037FD044600E0042404F06AFD5A
:104F2000204670BD08B506F043FE4FF47A720023A8
:104F300009F070FF08BDFFFF10B5044606F0B2FF90
:104F4000074BB0FBF3F00223B0FBF3F2944202D321
:104F5000044A136110BDB3F5807FF9D00233F3E743
:104F600040420F0000000340044B9860DA68D2060C
:104F7000FCD4024B9868C0B2704700BF00000340E9
:104F800070B5FFF7CFFF00F5FA74FF20FFF7ECFFD5
:104F90000025FF20FFF7E8FFFF28064605D0FFF7B2
:104FA000C1FFA94208BFA042F3D3304670BDFFFF46
:104FB00038B5064C4FF00075E561FFF7E1FF044A94
:104FC000A561137843F00103137038BD20C0092098
:104FD00006C007202DE9704306460D46FFF7A2FFE5
:104FE000643080464FF00009FF20FFF7BDFFFF2827
:104FF00008D1FFF797FF494508BF4045F4D300208B
:10500000BDE87083FE28FAD1102D06D900224FF496
:105010000071304604F074FC19E0341D0435FF20A3
:10502000FFF7A2FF04F8040CFF20FFF79DFF04F830
:10503000030CFF20FFF798FF04F8020CFF20FFF796
:1050400093FF043404F8050C2B1BDE42E7D1FF204C
:10505000FFF78AFFFF20FFF787FF0120BDE870837D
:1050600070B506460D46FFF78BFFFF28044619D1A1
:105070002846FFF779FFFD2D16D022464FF4007128
:10508000304604F03DFC2046FFF76EFF2046FFF758
:105090006BFF2046FFF768FF00F01F00431F5842D8
:1050A000584170BD002070BD012070BD020638B5AA
:1050B00004460D4607D500217720FFF7F7FF0128AA
:1050C00038D804F07F041C4B4FF000729A61DA610B
:1050D000FFF756FFFF28014628D12046FFF744FF7F
:1050E000280EFFF741FFC5F30740FFF73DFFC5F36B
:1050F0000720FFF739FFE8B2FFF736FF402C17D043
:10510000482C14BF01208720FFF72EFF4C2C02D122
:105110000846FFF729FF0A21FF20FFF725FF0306B6
:1051200008D5013911F0FF01F6D138BDFF2038BD97
:105130009520EEE738BD00BF20C00920064A074988
:1051400013784969DBB2490154BF03F0FD0343F012
:1051500003031370704700BF06C0072020C009205A
:105160002DE9F743FFF7EAFF564B1A781E4612F077
:10517000020F01D01878A1E00120FFF7DDFE0A241C
:10518000FF20013CFFF7F0FE14F0FF04F8D14E4F72
:105190004FF00073FB6121464020FFF787FF012895
:1051A00002D04FF0000875E0FFF7BCFE4FF4D57158
:1051B00000F57A754820FFF779FF012841D10DF1FC
:1051C0000408FF20FFF7D0FE08F804000134042C87
:1051D000F7D19DF80630012BE3D19DF80730AA2BBB
:1051E000DFD12C460025FFF79DFEA94208BFA04253
:1051F00006D3FFF797FEA94208BFA042D1D207E02D
:105200004FF08041E920FFF751FF0028EBD1F0E794
:1052100000217A20FFF74AFF0028C2D10146FF2073
:10522000FFF7A2FE08F8010001310429F7D19DF82B
:10523000043013F0400F14BF4FF00C084FF0040877
:1052400028E02146E920FFF731FF02282C4635BF30
:105250004FF002084FF001084FF0E9094FF0410903
:105260000025FFF75FFEA94208BFA0420BD3FFF75E
:1052700059FEA94208BFA0420CD34FF40071502040
:10528000FFF714FF06E000214846FFF70FFF002854
:10529000E7D1ECE70D4B83F800804FF00073BB6162
:1052A000B8F1000F07D03378182003F0FE033370F5
:1052B000FFF742FE01E0FFF77BFE3078C0B203B09B
:1052C000BDE8F08306C0072020C0092044C807209D
:1052D00008B5FFF733FF014B187808BD06C007205B
:1052E00070B5144606460846FFF728FF002C39D053
:1052F0001E4B1B78DB0737D41D4B4FF00072DA6171
:105300001C4A1D46127812F0080F08BF4002012CFB
:1053100001460CD15120FFF7C9FEE0B94FF40071EE
:105320003046FFF757FEB0FA80F4640913E05220CC
:10533000FFF7BCFE78B94FF400713046FFF74AFE24
:1053400028B1013C14F0FF0406F50076F3D10021EA
:105350004C20FFF7ABFE4FF00073201CAB6118BF71
:10536000012070BD042070BD032070BD06C0072061
:1053700020C0092044C80720F8B5144606460F4649
:10538000FFF7DCFE002C44D0254B1A78D20742D41C
:105390001B785B0741D4234B4FF00072DA61224A3D
:1053A0001D46127812F0080F08BF7F02012C0CD1A5
:1053B00039465820FFF77AFE18BBFE213046FFF72A
:1053C0004FFEB0FA80F464091CE012F0060F03D01F
:1053D0002146D720FFF76AFE39465920FFF766FEBF
:1053E00080B9FC213046FFF73BFE28B1013C14F0A8
:1053F000FF0406F50076F4D1FD210020FFF730FE12
:1054000000B901244FF00073201CAB6118BF0120CC
:10541000F8BD0420F8BD0320F8BD0220F8BD00BF90
:1054200006C0072020C0092044C807207FB50D46CC
:10543000FFF784FE05281AD12B78012B00F0048198
:1054400003D3022B0BD0042001E1824B586910F0EA
:10545000806440F0F980FFF7ABFD2046F7E07D4B1C
:105460005B6983F08063C3F380636B70ECE07A4B1D
:105470001B78DB0700F1EA800E2800F2DF80DFE80E
:1054800000F008124F53DDDDDDDDDDDDAAAFB2BB7C
:10549000CB00704B4FF00072DA61FFF771FDFF38FF
:1054A00018BF0120CBE000214920FFF7FFFD044693
:1054B00008B10120C3E010216846FFF78BFD0028EA
:1054C000F7D09DF800309DF808109B09012B9DF83E
:1054D000093006D1013303EB012189B28902296029
:1054E0006BE09DF807209DF80500920002EB9111FA
:1054F0009DF806200131920202F4406211449DF8A9
:105500000A2000F00F0000EBD2105A00023002F027
:1055100006028318DBB289B2093B01FA03F34BE0C0
:105520004FF400732B8059E04C4E337803F00403A2
:1055300003F0FF01F3B10021CD20FFF7B7FD0028F4
:10554000B7D1FF20FFF710FD10216846FFF742FD9D
:105550000028AED03021FF20FFF706FD481E10F0D6
:10556000FF01F8D19DF80A3008461A09102393402C
:105570002B6064E04920FFF799FD0446002898D18C
:1055800010216846FFF726FD002892D036789DF856
:105590000A2006F0020606F0FF009DF80B3076B1F7
:1055A000520002F07E0202EBD3135A1C9DF80D301C
:1055B0009B09013B02FA03F32B6020463FE0D90030
:1055C00001F01801C2F3840201EB5311531C01FBDB
:1055D00003332B6033E0214B1B782B7000202EE02F
:1055E0000021492001E000214A20FFF75FFD00284B
:1055F0007FF45FAF10211AE000217A20FFF756FDFB
:1056000000287FF456AF291DFF20FFF7ADFC05F8F9
:10561000010B8D42F8D1E1E70021CD20FFF746FDD7
:1056200000287FF446AFFF20FFF79EFC402128466C
:10563000FFF7D0FCB0FA80F0400900E00420054BF1
:105640004FF000729A6102E0002000E0032004B0F5
:1056500070BD00BF20C0092006C0072044C8072035
:10566000054B1B78253BDBB2032B9ABF034A52F84C
:1056700023000020704700BF48C807205078020070
:105680001B4B2DE9F0411D880646B5F5007F0F46FE
:10569000144602D12A46214613E0B5F5807F09D190
:1056A0002A4621463846B0472A4604F5807107F558
:1056B000807016E0B5F5047F05D1510A89024FF4D8
:1056C000007238460DE0B5F5847F0ED1140A6102F0
:1056D0004FF480723846B047611C4FF48072490223
:1056E000B8183346BDE8F0411847BDE8F08100BF67
:1056F00046C8072030B52F4C03462546002958DD03
:1057000007291A782DDDA2605A780839A2609A78A4
:10571000A260DA78A2601A79A2605A79A2609A79B6
:10572000A26003F10802DB79A360A3695B07FCD5E3
:10573000AB680370AB684370AB688370AB68C370D1
:10574000E368DB06FCD4AB68083000F8043CAB68C7
:1057500000F8033CAB6800F8023CAB6800F8013C81
:105760001AE003291ADDA2605A780439A2609A78F7
:10577000A2601A1DDB78A360E368DB06FCD4AB688B
:10578000043000F8043CAB6800F8033CAB6800F858
:10579000023CAB6800F8013C1346AFE70133A2605E
:1057A0000139E268D206FCD4AA68013000F8012C65
:1057B000A4E730BD0000034007B50B0C8DF80530A1
:1057C0008DF807100B0A04218DF804000DEB010081
:1057D0008DF80630FFF78EFF03B05DF804FBFFFF86
:1057E000F7B5174606460E4C40250323E5618DF8B4
:1057F00004300B0C8DF805308DF807100B0A0421CE
:105800000DEB01008DF80630FFF774FF00223946DA
:10581000304604F075F8A561A561A56103B0F0BD3F
:1058200000C009200E4B4022DA610E4BD7229A604D
:105830001A46D1680B4BC906FBD49A681A46FF2159
:105840009960D068C006FCD4906810F0800FF7D043
:10585000034B40229A61C0B29A619A61704700BFBF
:1058600000C0092000000340F7B5FFF7DBFF1F4C25
:10587000002323801E4B1F4E40271A889B78F76118
:105880000321054601A8ADF804208DF80630FFF786
:1058900031FF9DF805209DF806301F2AB76121468B
:1058A000B761B7611CD1A3F12502032A18D8124AA7
:1058B000252B137005F0010006D1002814BF4FF40A
:1058C00080734FF4847305E0002814BF4FF4007315
:1058D0004FF404730B80FFF7C3FE084B400A1860B7
:1058E0000888B0FA80F0400903B0F0BD46C8072030
:1058F0004678020000C0092048C807204CC807208D
:10590000F8B58B1817460D4A013B126804469342BE
:1059100010D84D02FFF786FF00262D1BBE4204EB78
:10592000050209DA21460648FFF7AAFE04F50074CD
:105930000136F3E70120F8BD0020F8BD4CC8072070
:10594000E1570100F8B58B1817460C4A013B126865
:1059500093420FD804460026C0EB4125BE4204EB1B
:10596000050209DA21460648FFF78AFE04F50074AD
:105970000136F3E70120F8BD0020F8BD4CC8072030
:10598000655A010008B5072805D8DFE800F00609C8
:105990000E1214141414042008BDFFF743FF0AE08C
:1059A000FFF75EFE400A086005E04FF400730B80CD
:1059B00001E001230B60002008BDFFFF70B590B02F
:1059C00003466A466E4600F1400514461868596859
:1059D000083303C4AB422246F7D1084D4024EC61A2
:1059E00000219B20FFF7E8FE21463046FFF782FEAC
:1059F000AC61AC61AC6110B070BD00BF00C00920EB
:105A000070B50646074D402400217720EC61FFF772
:105A1000D3FE21463046FFF76DFEAC61AC61AC6150
:105A200070BD00BF00C0092008B5064B198831F0D1
:105A30001F0104D0FFF714FEB0FBF1F008BD0846CB
:105A400008BD00BF46C80720014B1888704700BF3B
:105A500046C80720024B1878003018BF0120704755
:105A600046C807202DE9F7434FF0FF330F46914614
:105A700001938046FFF7D6FEFFF7ECFF0646B8B16C
:105A8000194C4025194BE5611B880320B3F5847F31
:105A90000CBF4FF480714FF400713943FFF78CFE57
:105AA00004210DEB0100FFF725FEA561A561A561AD
:105AB0000D4C402339468220E361FFF77DFE012231
:105AC0004946404603F01CFF3EB1019B02A801334A
:105AD00040F8043D0421FFF70DFE4023A361A361BC
